S0180000436C61795F43365F4669726D776172652E737265630F
S214000000000003207D8F0100C59A0100E9CE0000A4
S21400001001CF000019CF000031CF000049CF00000B
S21400002061CF000079CF000091CF0000A9CF00007B
S214000030C1CF0000D9CF0000F1CF000009D00000EA
S21400004021D0000039D0000051D0000069D0000057
S21400005081D0000099D00000B1D00000C9D00000C7
S214000060E1D00000F9D0000011D1000029D1000035
S21400007041D1000059D1000071D1000089D10000A3
S214000080A1D10000B9D10000D1D10000E9D1000013
S21400009001D2000019D2000031D2000049D200007F
S2140000A09DA5010061D20000F9B1010079D20000DF
S2140000B091D20000A9D20000C1D20000D19E01005A
S2140000C0D19E0100D9D20000F1D2000009D3000071
S2140000D021D3000039D3000051D3000069D30000BB
S2140000E081D3000099D30000B1D30000C9D300002B
S2140000F0E1D30000F9D3000011D4000029D4000099
S21400010041D4000059D4000071D4000089D4000006
S214000110A1D40000B9D40000D1D40000E9D4000076
S21400012001D5000019D5000031D50000D1AE010080
S21400013081A10100819A010049D50000A19A010021
S21400014061D5000079D5000091D50000A9D5000042
S214000150C1D50000D9D50000F1D50000A9BA01002C
S21400016009D6000021D6000039D6000051D600007E
S21400017069D6000081D6000099D60000B1D60000EE
S214000180C9D60000E1D60000F9D6000011D700005D
S20C00019029D7000041D700004A
S214000400FFFFFFFFFFFFFFFFFFFFFFFF7EFFFFFF78
S21400581010B5054C237833B9044B13B10448AFF3E5
S21400582000800123237010BD20050020000000002A
S2140058307406020008B5064B1BB106480649AFF3CE
S21400584000800648036813B1054B03B1984708BDAE
S2140058500000000074060200240500202005002039
S21400586000000000154B002B08BF134B9D46A3F508
S214005870803A00218B460F461348144A121A18F035
S21400588015FF0F4B002B00D098470E4B002B00D077
S21400589098470020002104000D000D48002802D083
S2140058A00C48AFF3008018F089FE2000290013F0A2
S2140058B083FA18F06FFE00BF000008000000032007
S2140058C0000000000000000020050020E448002042
S2140058D0000000000000000002484FF4C8710422D7
S2140058E009F0EEBEB57B00002DE9F04F814F87B082
S2140058F004460D46D7F8AC0005F0E8FF22462B46D6
S21400590006F0BCFA002844D1D7F8B00005F0DEFF58
S21400591002460B462046294606F0B0FAC8BBB7F842
S214005920BC3003931A46B7F9C23010B2C01A05F05D
S214005930CDFF80468946424629464B46204606F01D
S214005940BBFAB7F9CA20B7F9D030061CA2EB0300A1
S21400595018BF012605F0BAFF02460B462046294628
S214005960CDE9002306F0A8FA00B10136B7F9DE301B
S214005970B7F9D800C01A05F0A9FF82468B46204624
S214005980294652465B4606F097FA00B10136012ECC
S21400599003DD012007B0BDE8F08F2046294600222F
S2140059A0554B05F0F9FF04460D464046494622464B
S2140059B02B4606F081FA224610F100082B46DDE958
S2140059C0000118BF4FF0010806F076FA08B108F19A
S2140059D001085046594622462B4606F06DFA10B985
S2140059E0B8F1000F03D0022007B0BDE8F08F434B9C
S2140059F0404C0398CDF80C8093ED327B57EC176B38
S214005A0093ED347B8DED007B93ED367B8DED047B43
S214005A1004F12405B246BB4600B205F057FF5246D5
S214005A205B4605F005FE0646B4F9C2000F4605F0D3
S214005A304DFF52465B4605F0FBFD02460B463046E0
S214005A40394605F0A9FF8046B4F9BE00894605F040
S214005A503DFFDDE9002305F0EBFD0646B4F9C40082
S214005A600F4605F033FFDDE9002305F0E1FD0246B1
S214005A700B463046394605F08FFF02460B46404639
S214005A80494605F0D7FD8046B4F9C000894605F0C2
S214005A901DFFDDE9042305F0CBFD0646B4F9C6007C
S214005AA00F4605F013FFDDE9042305F0C1FD0246AD
S214005AB00B463046394605F06FFF02460B46404619
S214005AC0494605F0B7FD0022002306F0D7F90C344E
S214005AD060B9AC4202D0B4F8BC009DE7DDF80CB06B
S214005AE0BBF1010FCCBF0020012053E7039B01331D
S214005AF00393EEE7B842002000000440E840002090
S214005B00014B83ED3A0A7047B84200200C4A1368EE
S214005B105068D90110B481EAD301946881EA001173
S214005B2081EAC4045B0383EA5413C80A80EA43206C
S214005B3094605160D36010605DF8044B704700BFFE
S214005B400000002038B52DED048BB0EE409AFFF72C
S214005B50DDFF07EE900A9FED2A0A9FED2A8AF8EEEF
S214005B60677A27EE800A20EE080A0AF0FBFEF0EEBF
S214005B70408AFFF7CBFF07EE900AF8EE677A67EEEB
S214005B80887AF5EE407AF1EE10FA1FD19FED1A0BE7
S214005B9016F0B4FB55EC104B10EE100A00224FF036
S214005BA04043294605F0F8FE06F0D8F907EE900ABD
S214005BB0B1EEE70AB4EE400AF1EE10FA0DD120EE8F
S214005BC0090A20EE280ABDEC048B38BD17EE900AB1
S214005BD005F08EFE41EC100BDAE700224FF0404352
S214005BE02046294605F0D8FE06F0B8F900EE100A61
S214005BF016F05EFCE3E700BF000000000000F03F88
S214005C00DB0FC9400000802F2DE9F04F89B0054614
S214005C10079010EE100A10EE904A8A46059105F09D
S214005C2067FE06460F462046CDE9006705F060FE93
S214005C30D5E930238046894630463946CDE9028983
S214005C4005F0AAFE2E46DAE9302304460D46404605
S214005C50494605F0A1FE0B4602462946204605F0B9
S214005C60E9FC06F19003C6E9300106931D46D346CB
S214005C700AF1900306F1300ACDF810A034469A4691
S214005C80D4E90023DDE9000105F086FEFBE8028981
S214005C9006460F4642464B46DDE9020105F07CFE0D
S214005CA002460B463046394605F0C4FCE4E80201DD
S214005CB0DDE90001D5E9002305F06EFEFAE8028969
S214005CC006460F4642464B46DDE9020105F064FEF5
S214005CD00B4602463946304605F0ACFC049B9C4217
S214005CE0E5E80201CCD19A46079B03F14808059BDC
S214005CF0CDF8108003F1480BC146D846DDF818B041
S214005D00D9E90023DDE9000105F046FEF8E8026760
S214005D1004460D4632463B46DDE9020105F03CFEF0
S214005D2002460B462046294605F084FCE9E80201B7
S214005D30D945E5D1059BDDF8108003F13009C3464F
S214005D40C846DAE90023DDE9000105F025FEF8E89B
S214005D50026704460D4632463B46DDE9020105F081
S214005D601BFE02460B462046294605F063FCEAE881
S214005D700201D345E5D109B0BDE8F08F2DE9F04723
S214005D8082468EB008680C4605F0A0FD8046606826
S214005D90894605F09BFD0646A0680F4605F096FD71
S214005DA0002204460D46AD4BDAE9300105F042FC10
S214005DB042464B46CAE93001DAE90C0105F03AFCE6
S214005DC032463B46CAE90C01DAE90E0105F032FC20
S214005DD022462B46CAE90E01DAE9100105F02AFC34
S214005DE04246CAE910014B464046494605F0D4FDF6
S214005DF0CDE90001DDE90023DAE9000105F01AFC2F
S214005E003246CAE900013B464046494605F0C4FD15
S214005E10CDE90201DDE90223DAE9020105F00AFC18
S214005E202246CAE902012B464046494605F0B4FD23
S214005E30CDE90401DDE90423DAE9040105F0FAFB03
S214005E403246CAE904013B463046394605F0A4FD11
S214005E50CDE90601DDE90623DAE9060105F0EAFBED
S214005E602246CAE906012B463046394605F094FD1F
S214005E70CDE90801DAE90801DDE9082305F0DAFBD7
S214005E802246CAE908012B462046294605F084FD2D
S214005E90CDE90A01DDE90A23DAE90A0105F0CAFBC1
S214005EA0DDE90023CAE90A014046494605F074FDCB
S214005EB0CDE90C01DDE90C23DAE9120105F0BAFBA5
S214005EC0DDE90223CAE912013046394605F064FDD1
S214005ED002460B46DAE9140105F0ACFBDDE90423C3
S214005EE0CAE914012046294605F056FD02460B462F
S214005EF0DAE9160105F09EFBDDE90223CAE9160180
S214005F004046494605F048FD02460B46DAE91801C8
S214005F1005F090FBDDE90623CAE91801304639464C
S214005F2005F03AFDCDE90201DDE90223DAE91A01BE
S214005F3005F080FBDDE90823CAE91A012046294658
S214005F4005F02AFD02460B46DAE91C0105F072FB55
S214005F50DDE90423CAE91C014046494605F01CFD5C
S214005F6002460B46DAE91E0105F064FBDDE908236C
S214005F70CAE91E013046394605F00EFD02460B46BC
S214005F80DAE9200105F056FBDDE90A23CAE920011B
S214005F902046294605F000FDCDE90401DDE904238D
S214005FA0DAE9220105F046FBDDE90C23CAE9220105
S214005FB04046494605F0F0FC02460B46DAE9240165
S214005FC005F038FBDDE90223CAE9240130463946EC
S214005FD005F0E2FC02460B46DAE9260105F02AFB4C
S214005FE0DDE90423CAE926012046294605F0D4FC4B
S214005FF002460B46DAE9280105F01CFBDDE9002322
S214006000CAE928013046394605F0C6FC02460B466A
S2140060103046394605F0C0FC02460B46DAE92A014E
S21400602005F008FBDDE90023CAE92A0120462946D7
S21400603005F0B2FC02460B462046294605F0ACFCAD
S21400604002460B46DAE92C0105F0F4FADDE90623F0
S214006050CAE92C012046294602E000BF0000F03FB6
S21400606005F09AFC02460B462046294605F094FCAD
S21400607002460B46DAE92E0105F0DCFACAE92E01E3
S2140060800EB0BDE8F08700BF2DE9F04F90ED007B25
S214006090D0E93045B3B0824631928B4653EC172B8D
S2140060A020462946DAE90C898DED107B05F074FC54
S2140060B0424606460F464B464046494605F06CFCAF
S2140060C002460B463046394605F0B2FA9AED067B94
S2140060D053EC172B8DED127B9AED0E7BCDE90A0162
S2140060E0204629468DED027B05F056FCDDE90223AD
S2140060F006460F461046194605F04EFC02460B466D
S2140061003046394605F094FA9AED0A7B53EC172B85
S2140061108DED147B9AED107BCDE90C0120462946C7
S2140061208DED047B05F038FCDDE9042306460F46BA
S2140061301046194605F030FC02460B4630463946F6
S21400614005F076FADAE90223CDE90E012046294663
S21400615005F022FCDDE9022306460F464046494686
S21400616005F01AFC02460B463046394605F060FA42
S214006170DAE90423CDE906012046294605F00CFCA1
S214006180DDE9042306460F464046494605F004FC72
S21400619002460B463046394605F04AFADAE9082345
S2140061A0CDE908012046294605F0F6FBDDE9042383
S2140061B006460F46DDE9020105F0EEFB02460B46F9
S2140061C03046394605F034FA9AED127B8DED187B91
S2140061D09AED147B8DED207B9AED167B8DED227B60
S2140061E09AED187B8DED247B9AED1A7BDDE9066728
S2140061F08DED267B9AED1C7B32463B46CDE90001B1
S214006200DDE90E018DED287B05F0C6FBDDE90823F0
S214006210CDE91601DDE90C0105F0BEFBDDE90C2336
S214006220CDE91A01DDE90A0105F0B6FB32463B4628
S214006230CDE91C01DDE91601CDE9066705F0ACFBEA
S214006240DDE9062306460F461046194605F0F2F924
S214006250DDE9082305F0A0FBDDE9002305F09CFB43
S21400626002460B463046394605F0E2F9DDE90823DA
S21400627006460F46DDE91A0105F08EFB02460B4680
S2140062803046394605F0D6F9DDE9002306460F46C6
S214006290DDE90A0105F080FBDDE9002305F07CFB63
S2140062A002460B463046394605F0C4F9DDE90E23B2
S2140062B006460F46DDE91C0105F06EFB02460B465E
S2140062C03046394605F0B4F99AED1E7B8DED2A7BF3
S2140062D09AED207B8DED2C7B9AED227B002200230D
S2140062E0CDE91E018DED2E7B05F0BEFD18B1002018
S2140062F033B0BDE8F08FDDE918232046294605F0C7
S2140063004BFB424606460F464B46DDE9100105F0BC
S21400631043FB02460B463046394605F089F9DDE96F
S214006320202306460F462046294605F035FB024642
S2140063300B463046394605F07DF9DDE91223064660
S2140063400F464046494605F027FB02460B463046B8
S214006350394605F06DF9DDE9222306460F4620464C
S214006360294605F019FB02460B463046394605F02D
S21400637061F906460F4640464946DDE9148942461D
S2140063804B4605F009FB02460B463046394605F0FB
S2140063904FF90022C74B05F0FFFADDE92423CDE9CB
S2140063A018012046294605F0F7FADDE902230646DD
S2140063B00F46DDE9100105F0EFFA02460B463046BF
S2140063C0394605F035F9DDE9262306460F46204610
S2140063D0294605F0E1FA02460B463046394605F0F6
S2140063E029F9DDE9022306460F46DDE9120105F02C
S2140063F0D3FA02460B463046394605F019F9DDE970
S214006400282306460F462046294605F0C5FA0246CA
S2140064100B463046394605F00DF9424606460F460D
S2140064204B46DDE90201CDE9148905F0B5FA0246CE
S2140064300B463046394605F0FBF800229D4B05F02A
S214006440ABFADDE92A23804689462046294605F030
S214006450A3FADDE9042306460F46DDE9100105F040
S2140064609BFA02460B463046394605F0E1F8DDE970
S2140064702C2306460F462046294605F08DFA02468E
S2140064800B463046394605F0D5F8DDE904230646C6
S2140064900F46DDE9120105F07FFA02460B4630464C
S2140064A0394605F0C5F8DDE92E2306460F46204698
S2140064B0294605F071FA02460B463046394605F085
S2140064C0B9F8DDE9042304460D46DDE9140105F0BC
S2140064D063FA02460B462046294605F0A9F8002234
S2140064E0744B05F059FADDE9082306460F46DDE948
S2140064F0060105F051FA3246CDE910013B46DDE9CA
S2140065000C0105F049FA424604460D464B46DDE9C5
S214006510000105F041FA02460B462046294605F0E2
S21400652087F8DDE9082305F037FADDE9002304469D
S2140065300D461046194605F02FFADDE9182305F03A
S2140065402BFA02460B462046294605F073F8DDE98D
S2140065500E2304460D46DDE90C0105F01DFADDE9C3
S214006560182305F019FA02460B462046294605F080
S2140065705FF8DDE9162304460D464046494605F019
S2140065800BFA02460B462046294605F053F8DDE98D
S214006590002304460D46DDE9060105F0FDF9324606
S2140065A03B4605F0F9F902460B462046294605F01B
S2140065B03FF8DDE91E2305F019FB3246CDE902015E
S2140065C03B46CBE90001DDE90A0105F0E5F9DDE926
S2140065D0182304460D46DDE9080105F0DDF90246FC
S2140065E00B462046294605F023F8DDE9002305F092
S2140065F0D3F904460D46DDE9080102460B4605F0D0
S214006600CBF942464B4605F0C7F902460B462046F4
S214006610294605F00FF8DDE90E2304460D46DDE9B0
S2140066200A0105F0B9F942464B4605F0B5F90246AF
S2140066300B462046294604F0FBFFDDE916230446F8
S2140066400D46DDE9180105F0A7F902460B4620467F
S214006650294604F0EFFF324604460D463B46DDE988
S214006660100105F099F902460B462046294604F02B
S214006670DFFFDDE91E2305F0B9FA4246CDE9040145
S2140066804B46CBE90201DDE90A0105F085F9DDE9B3
S214006690182304460D46DDE9060105F07DF902469D
S2140066A00B462046294604F0C3FFDDE9002305F02B
S2140066B073F901E00000E03F04460D46DDE90601FF
S2140066C002460B4605F068F932463B4605F064F98B
S2140066D002460B462046294604F0ACFFDDE91C23A3
S2140066E004460D463046394605F056F902460B4636
S2140066F02046294604F09CFF04460D46DDE91801B5
S214006700DDE91A2305F048F902460B4620462946DD
S21400671004F090FFDDE9102304460D464046494646
S21400672005F03AF902460B462046294604F080FF5B
S214006730DDE91E2305F05AFA04460D46DDE902019E
S214006740CBE9044502460B4605F026F9DDE90423AD
S214006750CDE900011046194605F01EF9224680468E
S21400676089462B462046294605F016F9DAE906231F
S214006770CDE90601DAE9000104F05CFF4246064670
S2140067800F464B46DDE9000104F054FFDDE9062321
S21400679004F050FFDAE90A23CDE900013046394615
S2140067A004F048FFDAE90C2306460F46DDE902014D
S2140067B005F0F2F8DAE90E2380468946DDE90401A1
S2140067C005F0EAF802460B464046494604F032FF1A
S2140067D0DAE91023804689462046294605F0DCF88B
S2140067E002460B464046494604F024FF02460B4646
S2140067F004F020FF02460B463046394604F018FFE8
S214006800DAE9302305F0F2F902460B46DDE900012D
S21400681004F010FF41EC100B15F0EAFD319B01204F
S21400682083ED000B33B0BDE8F08F00BF2DE9F04FCD
S21400683090ED307BD1E9008999B004460D4642467A
S2140068404B4651EC170B8DED067B05F0A5F894ED45
S214006850007B06460F4632463B46404649468DED8F
S214006860087BCDE90E6705F097F8DDE9082305F00B
S21400687093F8D4E90CAB06460F4642464B464046D4
S214006880494605F089F852465B4605F085F802460B
S2140068900B465046594605F07FF802460B463046F2
S2140068A0394604F0C5FED4E9122306460F46DDE954
S2140068B00E0105F071F802460B463046394604F0E4
S2140068C0B7FEDDE90623CDE902011046194604F0BD
S2140068D0B1FE06460F4632463B4640464946CDE99F
S2140068E0166705F059F895ED027B53EC172B8DEDE6
S2140068F0007BCDE9040105F04FF8D4E9022305F04A
S2140069004BF8DDE9082306460F464046494605F0A3
S21400691043F802460B465046594605F03DF80246F7
S2140069200B46DDE9020104F085FE02460B463046C2
S214006930394604F07FFE424606460F464B46404622
S214006940494604F077FE02460B46DDE90001CDE934
S2140069500C2305F021F894ED0E7B02460B465046BC
S21400696059468DED0A7B05F017F8DDE90A2305F098
S21400697013F802460B463046394604F059FED4E971
S214006980142306460F46DDE90E0105F005F802461B
S2140069900B463046394604F04BFE524606460F4636
S2140069A05B464046494604F0F7FF95ED047BCDE98B
S2140069B0100153EC172BDDE904018DED027B04F08A
S2140069C0EBFF94ED067BD4E904238DED047B04F005
S2140069D0E3FFDDE9042380468946DDE9100104F083
S2140069E0DBFF02460B463046394604F023FE0246DD
S2140069F00B464046494604F01DFEDDE902230646E6
S214006A000F46DDE90C0104F0C7FF94ED107B02464B
S214006A100B46504659468DED0C7B04F0BDFFDDE974
S214006A200C2304F0B9FF02460B463046394604F004
S214006A30FFFDD4E9162306460F46DDE90E0104F0F5
S214006A40ABFF02460B463046394604F0F1FD002205
S214006A5080468946C34BDDE9060104F09DFFD4E974
S214006A602423D4E90AABCDE9120104F095FF52467F
S214006A7006460F465B46DDE9100104F08DFF024630
S214006A800B464046494604F0D5FD02460B463046C6
S214006A90394604F0CFFDDDE9002306460F46DDE962
S214006AA0060104F079FFDDE90889CDE90E01002230
S214006AB040464946AB4B04F06FFF02460B46404645
S214006AC04946CDE9088904F067FF02460B46304682
S214006AD0394604F0ADFDD4E9182306460F46DDE935
S214006AE00E0104F059FF02460B463046394604F0C4
S214006AF09FFD0022804689469B4BDDE9060104F097
S214006B004BFFD4E92A23CDE9100104F045FFDDE967
S214006B10002306460F46DDE9080104F03DFF024665
S214006B200B46DDE90A0104F037FF02460B464046F5
S214006B30494604F07FFD02460B463046394604F0CF
S214006B4079FD002206460F46874BDDE9080104F072
S214006B5023FFCDE91401DDE90601DDE9022304F097
S214006B601BFFDDE9142380468946DDE9040104F0B5
S214006B7013FF02460B463046394604F059FDD4E969
S214006B801E2306460F4640464946CDE9068904F0D0
S214006B9003FF02460B463046394604F049FDD4E969
S214006BA02C2380468946DDE9100104F0F5FEDDE978
S214006BB0022306460F46DDE9080104F0EDFE024614
S214006BC00B46DDE90C0104F0E7FE02460B464046A4
S214006BD0494604F02FFD02460B463046394604F07F
S214006BE029FDDDE90E2380468946DDE9000104F033
S214006BF0D3FE02460B46DDE9040104F0CDFEDDE9D6
S214006C00142306460F465046594604F0C5FE024673
S214006C100B464046494604F00BFD02460B463046FE
S214006C20394604F007FDDDE9002306460F46104608
S214006C30194604F0B1FEDDE90A8902460B464046D5
S214006C40494604F0A9FE02460B4640464946CDE9B1
S214006C500A8904F0A1FE02460B463046394604F087
S214006C60E7FCD4E91A2306460F46DDE90E0104F0D8
S214006C7093FE02460B463046394604F0D9FCDDE961
S214006C80002380468946DDE9160104F085FE0246AB
S214006C900B46DDE9020104F07FFED4E9082304F088
S214006CA07BFEDDE9042306460F46DDE9000104F01D
S214006CB073FE02460B46DDE90A0104F06DFE02464D
S214006CC00B464046494604F0B5FC02460B463046A5
S214006CD0394604F0AFFCDDE9002306460F461046B1
S214006CE0194604F0A7FC02460B46DDE9020104F053
S214006CF053FE02460B46DDE90A0104F04DFE02464D
S214006D000B46DDE90C0104F047FE02460B46304612
S214006D10394604F08DFCD4E91C2306460F46DDE90F
S214006D200E0104F039FE02460B463046394604F0A2
S214006D307FFC80468946DDE91201D4E9262304F06B
S214006D402BFEDDE90A2306460F46DDE9000104F0C6
S214006D5023FE02460B465046594604F01DFE0246E8
S214006D6004E000BF0000D03F0000E03F0B46404676
S214006D70494604F05FFC02460B463046394604F0AE
S214006D8059FCDDE9048906460F464046494600227E
S214006D90664B04F001FE02460B4640464946CDE9E6
S214006DA0048904F0F9FD02460B463046394604F0E5
S214006DB03FFCD4E9202306460F46DDE9060104F031
S214006DC0EBFD02460B463046394604F031FCD4E96A
S214006DD02E2380468946DDE9100104F0DDFDDDE95D
S214006DE0022306460F46DDE9040104F0D5FD0246FF
S214006DF00B46DDE90C0104F0CFFD02460B4640468B
S214006E00494604F017FC02460B463046394604F065
S214006E1011FCDDE9062380468946DDE9020104F01F
S214006E20BBFD02460B465046594604F0B5FD00220F
S214006E3006460F463E4BDDE9040104F0ADFD024672
S214006E400B465046594604F0A7FD02460B46404600
S214006E50494604F0EDFB02460B463046394604F040
S214006E60E9FBDDE9028906460F4642464B464046A8
S214006E70494604F091FD02460B46DDE90C0104F09C
S214006E808BFD02460B46DDE90C0104F085FD02464B
S214006E900B463046394604F0CBFBD4E9222306469F
S214006EA00F46DDE9060104F077FD02460B46304644
S214006EB0394604F0BDFBD4E9282306460F46DDE933
S214006EC0120104F069FD524604460D465B464046F4
S214006ED0494604F061FD02460B46DDE90C0104F06C
S214006EE05BFD02460B463046394604F0A3FB0246DD
S214006EF00B462046294604F09DFB002204460D461C
S214006F0050465946094B04F047FD02460B4650468C
S214006F10594604F041FD02460B462046294604F039
S214006F2087FB41EC100B19B0BDE8F08F0000D03F96
S214006F300000E03F2DE9F043804687B0B8F98C505A
S214006F40B8F98E40B8F9902003A812042D04240442
S214006F50894600950194029208F08CFA019C049EE2
S214006F60029A009D039FB8F88800D8F8AC10A41BBE
S214006F70059E0194961B4B46ED1B6A4600950296AD
S214006F8009F028FC07B0BDE8F08300BF2DE9F04704
S214006F902DED028B86B088466946FFF7CBFF03AD22
S214006FA09FED258A00260027EA462C460DF1180993
S214006FB0FAEC017AF8EEE77A67EE887A27EEA77A97
S214006FC0E4EC017A17EE100A04F092FC02460B4637
S214006FD03046394604F02EFB4C4506460F46E7D1B0
S214006FE047EC106B15F004FA57EC106B444608F1AA
S214006FF00C0955F8040B04F07BFC32463B4604F0C3
S214007000F5FD04F0ABFFD4ED007A07EE100A77EE3C
S214007010877AE4EC017A4C45EBD1D8F8543001334A
S214007020C8F8543009F0F4FEC8F87C0006B0BDEC91
S214007030028BBDE8F08700BF000080372DE9F043E3
S2140070409DB055230022044606A804930593029299
S214007050039209F0FFFD06A80AA908F03FFF0AA858
S2140070600EAA02A908F040FE0EA806A912AA08F069
S2140070703BFE13A90EC9B2EE050A01F5967102F59C
S214007080967203F59673139114921593FEF75AFDB4
S214007090FDEEC07A139A17EE903AB2EE050A134444
S2140070A01393FEF74FFDFDEEC07A149A17EE903A52
S2140070B0B2EE050A13441493FEF744FDBDEEC00A73
S2140070C0159B10EE102A2046134413A91593FEF7BD
S2140070D055FED4E930010022314B04F0EDFE20B914
S2140070E09FED2B0B1DB0BDE8F083204616A96A461F
S2140070F0FEF7CAFF0028F3D0DDE9160126A3D3E980
S214007100002304F095FA24A3D3E9002304460D4691
S214007110DDE9180104F08CFA1FA3D3E900238046AA
S2140071208946DDE91A0104F083FA224606460F4630
S2140071302B462046294604F02FFC424604460D46C0
S2140071404B464046494604F027FC02460B4620467E
S214007150294604F06FFA324604460D463B46304652
S214007160394604F019FC02460B462046294604F030
S21400717061FA41EC100B15F03BF9002251EC100BB4
S214007180084B04F033FD41EC100B1DB0BDE8F08356
S2140071905555555555D574400000000000C0724046
S2140071A0000034400000084038B5E8250F4C104871
S2140071B02A46002117F07AFA47F6FF732A464FF45C
S2140071C00045A4F8C230A4F8D030A4F8DE30094850
S2140071D0A4F8BC500021A4F8CA50A4F8D85017F060
S2140071E065FA0023C4F8B43038BD00BFB8420020AA
S2140071F0E8400020604400202DE9F04FDFF8A8A00A
S2140072002DED028BDAF89431012BCFB0834600F0D7
S214007210BD82DAF80831244A2449002BC4BF03F1A2
S214007220FF33C2F80831D1E930010022002304F010
S21400723043FEC0B10DF15009E8221C49484617F03C
S21400724011FA1A480BA9FEF799FD184806AA00F18C
S214007250C801FEF719FF002840F01182494613487E
S214007260E82217F0FFF9DBF83030DA0504D5DBF852
S2140072707430DB0500F178829FED098B0C490D4BCD
S2140072800022D1E9300104F0F9FD0446A0B1002047
S2140072904FB0BDEC028BBDE8F08F00BFAFF30080AF
S2140072A00000000000000840B8420020D041002046
S2140072B0E840002000003440BF4806AA00F1C8019C
S2140072C0FEF7E2FE0028E2D0DBF8AC00BB4D04F08F
S2140072D0FDFA02460B46B4A1D1E9000104F086FC93
S2140072E0B54ADAF8A830CDE90201D2E93201D2E98E
S2140072F034670AEBC302C2E90001AF4AD2E936019D
S2140073000AEBC302C2E90267DA1C0AEBC303C3E94D
S2140073100401142ACAF8A820C8BFC5F8A840A74C7C
S2140073200FCC0EAD0FC594E80300A4F1100A564624
S21400733085E803000FCE0DF150094D460FC594E8C1
S214007340030085E8030004F1080304F19802CDF871
S21400735010B000929B460EAE4F46D846F8E802455F
S214007360F6E8020122462B4604F0A6FD08B146E9DF
S214007370024520462946F7E8022304F09DFD08B1A1
S21400738047E902454E45E9D1009B0BF1180B9B459A
S214007390E1D1DDE90E23DDE9140104F049F9DDE968
S2140073A0102304460D46DDE9160104F041F90646B1
S2140073B00F462046294632463B46DDF810B004F01C
S2140073C07BFD08B934463D46DDE91223DDE91801A8
S2140073D004F02EF922462B4606460F4604F04EFDD4
S2140073E008B934463D46DDE9020122462B4604F044
S2140073F045FD40B151EC180B0022714B04F03EFDE8
S214007400002840F039812B462246DDE9020104F0CF
S21400741053FD694BD3E93045002800F0AD8151ECAF
S214007420180B0022674B04F029FD002800F0A48109
S2140074300022654BDFF880812046294604F03CFD9B
S214007440002800F09981614B604FD3E9300100229B
S214007450002304F009FD002840F07E82DAF8B4002C
S214007460564E04F033FA22462B4604F0BFFB50A3D8
S214007470D3E9002304F020FD002840F0FD804046BC
S21400748008F1C801FFF7D2F953EC102B10EE100AE2
S21400749019468DED020B04F0CDF80022CDE900016F
S2140074A04B4B2046294604F0C3F802460B462046BE
S2140074B0294604F071FA02460B46DDE9000104F0A5
S2140074C095FB41EC100B14F093FFD6F8E80055EC52
S2140074D0104B04F00DFAD6E9382304F05DFA0246A4
S2140074E00B462046294604F0E7FC002840F0C480FE
S2140074F0DDE90601FEF7F8F900287FF4C8AED7E903
S2140075003223D8E9320104F093F8D7E9342304464D
S2140075100D46D8E9340104F08BF8D7E93623CDE9D7
S2140075200001D8E9360104F083F82246CDE90401CB
S2140075302B462046294604F02FFA04460D46DDE980
S214007540000102460B4604F027FA02460B46204688
S214007550294604F06FF804460D46DDE904010246AC
S2140075600B4604F019FA02460B462046294604F05C
S21400757061F841EC100B14F03BFFDBF8AC0055EC67
S214007580104B04F0A3F902460B462046294604F0A9
S21400759003FA00220F4B04F0FFF90022094B0446C1
S2140075A00D4619E0AFF300809A9999999999A941E7
S2140075B00AD7A3703D0AE73FE8400020B842002003
S2140075C00000F83F0000104000003E40D041002080
S2140075D00000F03F0000103E04F06EFCB0B92046FC
S2140075E029460022B44B04F067FC002844D0D6F8A5
S2140075F0B40004F06BF9D8E9302304F0F7FAACA332
S214007600D3E9002304F03AFC002835D0DAF89831A4
S214007610AA4C012B30D1002009F014FC9DED027B12
S214007620A74B84ED407BD3E932010022A54B04F042
S214007630B3F904F04BFCA249A24B08900022D1E912
S214007640340104F0A9F904F041FC9D499D4B0990D2
S2140076500022D1E9360104F09FF904F037FC03213B
S2140076600A9008A807F018FF974895499FED970AD3
S214007670F7EE000AFEF7C8FAFFF796FD07E692480F
S21400768000F1C801FFF7D2F857EC106B10EE100AA5
S214007690DAE9402339468DED020B03F0C9FF0D46AB
S2140076A089498B4B04460022D1E9300103F0C0FF24
S2140076B002460B462046294604F098FA41EC100B89
S2140076C014F096FE804C32463B4630463946D4E9A6
S2140076D030458DED000B03F0ADFF002206460F4649
S2140076E0204629467A4B03F0A3FF02460B46204667
S2140076F0294604F051F902460B463046394604F056
S21400770075FA0022002304460D4604F0B7FB18B1B4
S21400771045EC104B14F06CFEDAF8E800674E04F007
S214007720E7F8DAE9382304F037F904460D4622462E
S214007730DDE900012B4604F0BFFB002840F0A880DE
S214007740D6F80831002B40F3C9804946E8225E4847
S21400775016F088FFDDE9000122462B4604F0ACFB5C
S21400776000283FF480AD98E05A48FFF767FCB0EE7B
S214007770408AF0EE608A81E5204629460022564B74
S21400778004F09AFB00283FF482AD75E7B0F98C1040
S214007790B0F98E20B0F990300B9149480C920BA9A5
S2140077A00D93FEF7EBFABBF88C30BAF9BC101AB2A0
S2140077B091420BDAAAF8BC30BBF88E30AAF8BE307D
S2140077C0BBF89030AAF8C030BBF88C30BAF9C200CB
S2140077D03A4A19B2884209DDA2F8C230BBF88E30A8
S2140077E0A2F8C430BBF89030A2F8C630BBF88E3092
S2140077F0BAF9CA00314A19B288420DDABBF88C30A1
S214007800A2F8C830BBF88E30A2F8CA30BBF8903069
S214007810A2F8CC30BBF88E30BAF9D010274A1BB28B
S21400782099420BDDBBF88C30A2F8CE30BBF88E3018
S214007830A2F8D030BBF89030A2F8D230BBF8903027
S214007840BAF9D8001D4A19B288420DDABBF88C3056
S214007850A2F8D430BBF88E30A2F8D630BBF8903001
S214007860A2F8D830BBF89030BAF9DE10134A1BB233
S21400787099427FF7CEACBBF88C30A2F8DA30BBF872
S2140078808E30A2F8DC30BBF89030A2F8DE30C0E4D0
S21400789049460D48E82216F0E5FE4FF4FA7001F06E
S2140078A083FF0A23CAF80831DDE400BFAFF3008087
S2140078B0333333333333C33F00000440B842002031
S2140078C0E84000200000F040D0410020000000000A
S2140078D00000F03F6044002000409F40D6F89831FA
S2140078E0012B7FF4C0ACD6F8B43000200133C6F8C4
S2140078F0B43009F0A7FA614B0022D3E93201604B9D
S21400790004F04AF804F0E2FA5C495D4B0890002265
S214007910D1E9340104F040F804F0D8FA5749584B3E
S21400792009900022D1E9360104F036F804F0CEFAC8
S21400793003210A9008A807F0AFFD504B0022D3E9B8
S2140079403001504B04F0B8FA002840F087809DEDD7
S214007950027B8AED407B86E4404608F1C801FEF7CC
S21400796065FF20468AED400B0022474B29468DEDE9
S214007970000B03F05DFECDE90201DDE900010246E1
S2140079800B4603F057FEDDE90223CDE90001204651
S214007990294604F001F802460B46DDE9000104F032
S2140079A025F941EC100B14F023FDDAF8E800B0EEF0
S2140079B0408AF0EE608A03F09BFFDAE9382303F092
S2140079C0EBFF02460B4651EC180B304C04F074FAF1
S2140079D000287FF451AEDDE90601FDF785FF022899
S2140079E03FF44AAE00287FF452ACD4F89841012CFC
S2140079F07FF44DAC09F026FAD8E932010022204B7C
S214007A0003F0CAFF04F062FA00221D4B0890D8E982
S214007A10340103F0C1FF04F059FA0022184B099014
S214007A20D8E9360103F0B8FF04F050FA03210A90B3
S214007A3008A807F031FD204609F0F6F91923484654
S214007A4014931593169309F019FA384641469FED9C
S214007A50100AF7EE000AFEF7D7F80DE607489FED86
S214007A600D0A0146F0EE400AFEF7CEF8034800F194
S214007A70C801FEF7DBFE8DED020B68E7D041002063
S214007A800000F04000409F400000F03FB842002059
S214007A90000000006666E63E70B5444D036BC5F810
S214007AA0A031044609F01AF8064608B1002070BD59
S214007AB009F0D8F90428F9D0204605F59071FFF7AB
S214007AC065FAD5F87421D5F870319A424FDA236BEF
S214007AD0DB053CD4D5F81421D4F8A030334D9B1ADE
S214007AE083EAE372A2EBE372B2F5A02F46DCD5F888
S214007AF01811D4F8A420521A82EAE271A1EBE271BE
S214007B00B1F5A02F3ADCD5F81C01D4F8A810091A54
S214007B1081EAE170A0EBE170B0F5A02F12DC121242
S214007B2002FB02F21B1203FB0323091201FB0131C5
S214007B30B1F5403F2EDAD5F8B830002BB6DD013B64
S214007B40C5F8B8302046FFF757FB002070BD04F19B
S214007B50180008F055F8B0F5C84F17D2D5F8B83069
S214007B60124A002BA2DD013BC2F8B830EAE705F561
S214007B70907003F095F8C5F87461A8E722460C4BA0
S214007B8052F8A00F5168926807C3DBE70423C5F8D4
S214007B90B830D7E723460422C5F8B82053F8A00F1C
S214007BA059689A6805F58A7507C5CBE7B84200207C
S214007BB0CC430020F8B5284CD4F80C310546BBB1B0
S214007BC0D5F8B01044F61F62914208DCD4F81031A4
S214007BD021480B44934207DD0023C0F810312846A5
S214007BE0BDE8F840FFF758BFC0F810310020F8BDD8
S214007BF0D0F8AC60F6B1F71732463B4600201921A4
S214007C0004F00AFB32463B46C4F8AC0005210020CF
S214007C1004F002FB32463B46C4F8B0009621002032
S214007C2004F0FAFA03F052FEC4E938010123C4F85E
S214007C300C31C5E706A1D1E900016FF00043C4E9A5
S214007C403801C4F8AC30C4F8B030EFE7AFF30080CA
S214007C500000C0FFFFFFDF41B8420020014807F0E8
S214007C60C9BD00BFB57B000038B5154C15480021CE
S214007C70E82216F01BFDFFF797FA00214FF4D472A6
S214007C80204616F013FD4FF07E5304F59070C4F8AE
S214007C90E83002F03BFF0C490C4A0D4BC4F8881143
S214007CA00A254FF082401E21C4F85C01C4F87051CA
S214007CB0C4F87C11C4F88421C4F88C31002038BD87
S214007CC0B8420020D0410020CDCCCC3E3333333FE9
S214007CD09A99193F08B5FFF7C7FF00B108BD0248DB
S214007CE0BDE8084009F08EB9D958000008B5044828
S214007CF007F080FD0348BDE8084009F041B900BF21
S214007D00B57B0000D95800002DE9F04F002189B05E
S214007D1080460020CDE9060103239C46CDF804806A
S214007D20019B93E8C000D3E906ABA6FB0601044618
S214007D3006FB07F3BAEB040201EB4303A0469946A1
S214007D406BEB0303941843EB0305A21845EB030300
S214007D5018EB020449EB030506FB05F107FB0411CB
S214007D60A6FB0423AAFB0A450AFB0BF0AB46A24679
S214007D700B440BEB4001CDE902AB03910199D1E92D
S214007D800C0118EB080449EB0905801A61EB0301A6
S214007D908946DDE902AB06FB05F14B4680469800B6
S214007DA007FB0413A6FB0445DAF1000A1D44DDE9CF
S214007DB002236BEB4B0B4FEA880E4FEA8B01CDF894
S214007DC010E04FEA8A0E12EB0E0240EA987041EA83
S214007DD09A714B41059006FB05F107FB041192468C
S214007DE09B46A6FB0423DDE90445019899462B46ED
S214007DF006FB03F307FB04379046A6FB0423D0E9F3
S214007E00124514EB0A0445EB0B05A2464846084407
S214007E1018EB0A04AB463B4440EB0B05101943EB4A
S214007E200501002871F10003019B03F1080301938B
S214007E302FDBDDE9062382428B4101DACDE906011C
S214007E40BCF1010C7FF46CAFDDE9060104F0A6F985
S214007E50124B07EE100AD3ED0E7AC7EE277A17EE0E
S214007E60900A08F0D3FD0E4BD3F80C329B00C3F1FA
S214007E70200201FA02F2B3F1200420FA03F040EAED
S214007E8002005CBF41FA04F42043194109B0BDE882
S214007E90F08F404261EB4101CBE700BF4005002078
S214007EA048450020C1070AD5184B4FF040414FF017
S214007EB080429966D96619675A679A67DA678207B1
S214007EC010D5124B4FF040414FF08042C3F80011DE
S214007ED0C3F80411C3F80811C3F80C21C3F8102125
S214007EE0C3F81421430710D5084B4FF040414FF01C
S214007EF08042C3F89811C3F89C11C3F8A011C3F8C8
S214007F00A421C3F8A821C3F8AC2170474845002037
S214007F1038B5094D982422462846002116F0C6FB9F
S214007F2005F598702246002116F0C0FB0520BDE836
S214007F303840FFF7B7BF00BF5045002010B50D4CC6
S214007F4000214FF41872204616F0B0FB0720FFF70A
S214007F50A9FF0123184603210022C4F8E43184F85F
S214007F60E83107F085FD044864210722BDE810408B
S214007F7007F0A6BB4845002041860000836F03B18A
S214007F80C2E60020002170472DE9F84F836F002BD2
S214007F905DD0A0F1080100F1100E0026002751F870
S214007FA0080FD1F804C0D1E9062300FB0CF8A0FBAB
S214007FB0004505EB4805121B63EB050312EB0208B0
S214007FC043EB030912EB080243EB0903D1E90CABC0
S214007FD012196B4102FB0CFC00FB03CCA2FB002336
S214007FE0B2EB0A02634463EB0B03002A73F1000052
S214007FF031DB964277EB0300BCBF16461F46714541
S214008000CDD13946304604F0C9F8154B07EE100AB4
S214008010D3ED0E7AC7EE277A17EE900A08F0F6FC34
S214008020104BD3F80C3203EB4303C3F1200201FAE2
S21400803002F2B3F1200420FA03F058BF41FA04F428
S21400804040EA020058BF20431941BDE8F88F1846A1
S2140080501946BDE8F88F524263EB4303C9E700BFF9
S21400806040050020484500202DE9F0412F4B84B004
S214008070D3F8107280461C461A4603F1800003F1BE
S214008080180601A952F8083F50F8045FBB4003EBFE
S2140080900543B24241F8043BF4D19822002124481B
S2140080A016F004FB0120FFF7FDFE94F8E8311F4AA6
S2140080B0042B32D01F4D019B686AAF6AEE6A039AA2
S2140080C0D8F82410181A029BDF1B002887EAE773EB
S2140080D0A3EBE773B8BF40428342A2EB0602B8BFE9
S2140080E0034682EAE270A0EBE2709842B8BF1846F8
S2140080F007F0D2FDD4F81832984206DA01A8032118
S21400810007F064FA022008F015FD01A90EC969629D
S214008110AA62EB6204B0BDE8F081D2F81832B3F57B
S214008120201FC4BF052382F8E831C3E74845002076
S2140081305045002040050020014BC3E9020170476E
S21400814040050020014BC3E90601704740050020AA
S214008150014BC3E90401704740050020064B30B4CC
S21400816003F5E872D2E90045D3F8E0310360C1E9CF
S214008170004530BC704700BF48450020064B30B471
S21400818003F5EC72D2E90045D3F8E0310360C1E9AB
S214008190004530BC704700BF484500202DE9F04F31
S2140081A083B001F11803D1F878B001930D4601F1C0
S2140081B0680C01F15C0ABBF1000F37D0B0F9002063
S2140081C0DCF81430D31A1E46DF175AF8042F9A42EA
S2140081D0B8BFCAF800305CF8042F9A42C8BFCCF883
S2140081E0003005F1600E2C460122002302FB07F842
S2140081F006FB0388A2FB06234344D4E9008918EB58
S214008200020849EB0309E4E806897445EED1019BB0
S21400821008359D4200F10200CDD10BF10103012289
S2140082208B67C1F8902003B0BDE8F08FB0F900303E
S214008230CCF81430002600275B46C6E70368D366F2
S21400824043681367F0B4946F83685367C2F8881066
S21400825094B1043802F15C0102F1680750F8043F5B
S2140082600E6A51F8045F9B1B002BB8BF5B42AB4203
S214008270C8BF0B60B942F1D1013401239467C2F83C
S2140082809030F0BC704700BF30B40023C56E046F5A
S214008290416FD0F88820C567C0F88040C0F88410C9
S2140082A0C0F88C200366436683668367C0F8903008
S2140082B030BC7047D0F88820D0F88C00101A704771
S2140082C0016E436E826E9942B8BF194691420846C7
S2140082D0B8BF1046704700BFF0B50346C2F1200491
S2140082E08E46B2F120070EFA04FC23FA02F002F1E1
S2140082F0FF354FF0010658BF4EFA07F706FA05F6A7
S2140083004CEA0000A4F1200558BF384303FA05F5EF
S214008310C4F1200723FA07F74CEA05053D43A340BE
S214008320C4F12007E34005FA07F7203C43EA0703B9
S2140083305CBF45FA04F423439E424EFA02F107DB83
S2140083407642B34203DA10F1FF3041F1FF31F0BD5F
S214008350013041F10001F0BD0B4A1146002341F8FF
S214008360043B0431536041F8043B13620B605362D4
S2140083709362D362136153619361D3611363536352
S2140083809363D363704700BF684700200B4AD2F858
S2140083904832F0B404460D466BB11146F1E99067D9
S2140083A0864277EB050001DAC1E900450133C2F8E1
S2140083B04832F0BC704702F51071F5E748450020DA
S2140083C00B4AD2F85832F0B404460D466BB111464B
S2140083D0F1E99467864277EB050001DAC1E90045CA
S2140083E00133C2F85832F0BC704702F51471F5E755
S2140083F0484500200B4AD2F82832F0B404460D4611
S2140084006BB11146F1E98867B04275EB070001DAF7
S214008410C1E900450133C2F82832F0BC704702F5C6
S2140084200871F5E7484500200B4AD2F83832F0B418
S21400843004460D466BB11146F1E98C67B04275EB08
S214008440070001DAC1E900450133C2F83832F0BC52
S214008450704702F50C71F5E7484500202DE9F04D10
S214008460DFF830814A4ED8F86820D8F87C50F46B94
S21400847008F16C018AC9D21BD8F87870C91B9142E2
S214008480A3EB0505B8BF1146A9420B46B8BF2B465D
S2140084909C4256DB036BDC0502D40220BDE8F08D5F
S2140084A0D8F88030D8F800209342F6DB416FC90533
S2140084B04CD5D8F8B0319A42EFDC002B56D10024C8
S2140084C00025D6E904233349A24201F5EC70AB41FE
S2140084D0C0E9004548DAD1F83832002B4FD101F513
S2140084E00C71C1E900450133C8F838320024002178
S2140084F09822294816F0DAF80420FFF7D3FCD8F8BB
S214008500803033B32548FFF7FFFBD6E90667214BDB
S214008510864203F5F872C2E9000177EB01021BDA26
S214008520D3F82822DAB1F3E98845A04271EB0504B6
S21400853001DAC3E900010132C8F828220020BDE8AC
S214008540F08DFFF7E5FC0020BDE8F08D0124002B40
S214008550D8D100200021D8E72046BDE8F08D03F5ED
S2140085600873C3E90001E6E70124C0E708F59C703C
S214008570FFF7CAFB040D44EA01340D15A1E7F1E943
S2140085808CAB544575EB0B02ADDAC1E90045AAE7A2
S2140085904005002048450020804600205045002029
S2140085A030B5036B03F0C003C02B85B004463BD048
S2140085B0636F03F0C003C02B30D0D4F8B83003F09C
S2140085C0C002C02A19D003F06003602B01D005B0AA
S2140085D030BDD4F8A050D4F8A400D4F8A830D4F80D
S2140085E0C010144A84139B13AD1301A8019502947E
S2140085F00393FFF723FE05B030BDB4F98C00B4F941
S2140086008E50B4F99030D4F8C0100190094A029503
S21400861001A80393FFF712FE05B030BD04F1480031
S2140086200549FFF7BBFDC8E704300449FFF7B6FD70
S214008630BEE700BFE84500208046002050450020E9
S2140086402DE9F843036BD90540F18780426F02F0AD
S2140086505002402A044600F08380D0F8B82002F08A
S2140086605002402A7CD003F05003402B78D0C24DF5
S214008670E36AD5F80812C04A994219D0092BC2F805
S2140086800832BE4E40F32C81736BB76B306BC2F86A
S2140086900C321946C2F81472106019228A40C3F1CF
S2140086A010034FF48041C5F81032F263C5F8181273
S2140086B02046FFF775FF95F8E831062B4DD8DFE822
S2140086C013F0FC00D000C70007009F007B00580096
S2140086D02046FFF7C3FE002800F0FE8001283CD1AC
S2140086E0D4F8B830DA0540F13A81D5F80001D5F86B
S2140086F00431D5F80811A14F9F4E9842B8BF1846CE
S2140087008142D7E90223B8BF0146084682424FEAB3
S214008710E17106F5E87E8B41CEE9000180F2168114
S214008720052386F8E831964BD5F85822D3E90001A0
S214008730002A40F0FB80C3E91E019249D5F8483272
S2140087400132C5F85822D1E90067002B40F0E480DA
S214008750C1E914670133C5F848320020BDE8F88344
S214008760854DFFF7D5FB0023C5F8E03185F8E831E5
S2140087707EE72046FFF772FE0128044600F0C88018
S2140087800028EAD1FFF7C4FB05F5867007C8D5F8C0
S2140087902831C5F80041C5F80441C5F80841C5F8B8
S2140087A01841C5F83041C5F81C01C5F82011C5F8B8
S2140087B02421C5F82C31D0E70623012085F8E831BE
S2140087C008F0B8F9FFF7A4FBD5F80C31D5F810017E
S2140087D0D5F81411D5F82821C5F81C310023C5F8A2
S2140087E00031C5F80431C5F80831C5F81831C5F8A8
S2140087F03031C5F82001C5F82411C5F82C21ACE7A6
S214008800D4F8B830DB0518D5D5F80421D5F8000122
S214008810D5F8083159495C4E8242B8BF02469342A9
S214008820D1E90201B8BF13461A4690424FEAE373F5
S214008830C6E9002371EB03034EDB2046FFF70EFE6E
S214008840002849D0012888D12046FFF70DFC6AE7AA
S2140088500323204685F8E831FFF706FCFFF758FBB0
S2140088607BE7D5F89830444E012B7FF476AF204650
S214008870FFF7F4FD002863D1052386F8E831D5F824
S2140088800C31D5F81001D5F81411D5F82821C5F803
S2140088901C310023C5F80031C5F80431C5F808318D
S2140088A0C5F81831C5F83031C5F82001C5F82411CF
S2140088B0C5F82C21FFF750FD4FE7D5F8E0312E4CD8
S2140088C05A1C092BC5F8E0217FF747AFFFF720FBBE
S2140088D0012384F8E83140E7052385F8E8313CE7D2
S2140088E0336B716B5B0007EE903AB8EEE70A013126
S2140088F0F1EEC07A1360C2F80C12F4EE677AF1EE6D
S21400890010FA33D1C5ED857AD5F80C32716BC4E612
S214008910022385F8E83120E7F1E91489B04579EBC0
S2140089200702BFF617AFC1E9006713E7F3E91E6752
S214008930864277EB0104BFF600AFC3E90001FCE610
S214008940012804BF022386F8E83198E7D6F82831D4
S214008950D6F82C113A6A5B1A9342FFF4E4AE04236D
S214008960204685F8E831FFF77FFBDCE613F0A0FD34
S214008970F0EE407AC6E700BF4845002040050020DC
S21400898020470020384700201847002010B5002355
S2140089904010002817D1013301229A4007EE902A92
S2140089A0B8EEE70A0C4CF1EEC07A63632263F4EE8D
S2140089B0677AF1EE10FA0AD1626BC4ED0E7A1923CB
S2140089C09340E36310BD03F10103E1DCE3E713F03A
S2140089D06FFDF0EE407AEFE7400500202DE9F84302
S2140089E0154D164C284600214FF4187215F05EFE01
S2140089F000214022204615F059FE0720FFF752FAC4
S214008A0001204FF4167200230D49C5F8E40140F228
S214008A10DC584FF00009142600271920C4E90689FF
S214008A20C4E90267C4E904232162FFF7AFFF002010
S214008A30C5F80802BDE8F883484500204005002038
S214008A400008AF2F08B5012008F074F80248BDE80A
S214008A50084006F0CFBE00BF4186000008B5FFF70D
S214008A60BDFF00B108BD0248BDE8084008F0CABA1C
S214008A703D7F000008B5FFF7E5FF0248BDE8084067
S214008A8008F07EBA3D7F0000014BD3E90001704735
S214008A9038470020704700BF02484FF41671042282
S214008AA006F00EBEB5900000F8B5436B002B2DED1A
S214008AB0028B0F46F0EE408A1546C0F29480D0F83E
S214008AC0BC60A6F10306B6FA86F676096848242244
S214008AD0011DA0F1BC0415F0CEFDDFED667AC4EDF5
S214008AE0388A04F1BC0304F1E402B3EC017A934241
S214008AF077EE877AF9D1B2EE047AC7EE877A312F0D
S214008B005D49C4ED397A47DDB7F57A7FB4BF9FED8E
S214008B105B8A9FED5B8ADFED5B6A88EE888AC823F6
S214008B20C1F81C3107EE105AB8EEC77A27EE087A5D
S214008B3087EE268AD4F82021534B002A18BFB0EEC1
S214008B40688A9D4208BFB0EE688AB5EE408AF1EEAC
S214008B5010FA0EBF94ED3A7AC4ED3A7AB0EE677A20
S214008B6077EE677AF0EEE77A17EE900A02F0C0FE2C
S214008B703BA3D3E9002303F09FF940B1D4ED2E7A4E
S214008B803D4BF5EE407AF1EE10FA00D16EBBB0EE3A
S214008B90480ABDEC028BF8BD3C4BD1F81C019FED9A
S214008BA03C7ADFED386A83FB0523EA17A2EBE32362
S214008BB003EB83030344002BC1F81C3188EE877A4D
S214008BC037DB06EE105AB8EEC68A27EE087A87EE2E
S214008BD0268AAFD1D4F82831012B9FED267A08BF1C
S214008BE0B0EE478AA6E7002670E7C822C3F81C2125
S214008BF018EE900A02F07CFE0022264B02F0F6FFEA
S214008C00064628460F4602F061FE02460B463046F0
S214008C10394602F0C1FE14A3D3E9002302F0E6FFB2
S214008C2003F09CF908EE100AB0EE480ABDEC028B81
S214008C30F8BD06EE105AB8EEC68A002327EE087A6C
S214008C40C1F81C3187EE268AD4F82831012B9FED17
S214008C50097A08BFB0EE478A6CE700BFAFF3008022
S214008C601283C0CAA145B63F000000000088B3408A
S214008C706448002000000000A84700200000484389
S214008C800000484200409C4540420F00AD8BDB6828
S214008C900000C843000079402DE9F04FDD4D2DED72
S214008CA0028BD5F82021ADB00023032A0593069346
S214008CB0079300F0A78105F1A40303931A469FEDDE
S214008CC0D67A0BAB02930FAF52F8041F07EE901A3A
S214008CD0F8EEE77A67EE877AE3EC017ABB42F3D1E7
S214008CE01FAECC4C01900DF12009304607F0B2FFC4
S214008CF0484607F05FFF04F10C013C22204615F0C1
S214008D00BAFC04F15801502204F1480015F0B3FCF7
S214008D1099E8070004F13C0383E8070096E80F0093
S214008D20D5F824B104F1980E8EE80F000BF101037C
S214008D30062BC5F8243140F31F810623C4F82431DE
S214008D404FF0000B05EB0B1303F14808019B9FED5A
S214008D50B38A0BEB4B0905EB890903F1A00A23AC98
S214008D604146AF48224606F0BFFF494650462246D7
S214008D7006F0B2FEF0EEC87AB0EEC07AB4EE677ACD
S214008D80F1EE10FA0BF1010B48BFB0EE408ABBF1D2
S214008D90060F08F1100809F10C09E1D1019B03F157
S214008DA0180006F02DFF9F4BD5F830219A42A8BF39
S214008DB01A468109B0EE480A0198FFF775FED5ED10
S214008DC03B7A20EE270A1BA885ED2E0A07F042FF05
S214008DD01BA8214607F0A4FB1BA99348324606F0C1
S214008DE083FF1BA8904907F079F80DF1140B4FF09C
S214008DF000090DF1880AA4460CEB09023346002050
S214008E00002153F8044F52F804EB5345C4FB0E01FF
S214008E10F7D1830F09F10C0943EA8103B9F1240F56
S214008E204BF8043BE8D1D5F82031002B40F0AE805B
S214008E30079C634208EE103ABAEEC18AB0EE480AC2
S214008E4007F090FDF0EE408AB0EE480A07F0A6FD67
S214008E5007EE904AB8EEE77ADFED747A87EE277A67
S214008E60D5F83031724A82FB0312DB17C3EBE223DC
S214008E7000261496159617AC07EE903AF8EEE77AA9
S214008E80B6EE008A87EE277ADFED686A8DED160A61
S214008E9027EE087ACDED138ABDEEC78A18EE103A93
S214008EA05B0008EE103AB8EEC88A28EE268A27EE4F
S214008EB0888ABDEEC88ABAEEC18AB0EE480A07F0C4
S214008EC051FD8DED170AB0EE480A1896199607F070
S214008ED065FD13A90BA83A468DED1A0A07F058F857
S214008EE02146384613AA07F053F8019BD3F8BC1066
S214008EF0002916DD13AE4F4ADFED506A029833465E
S214008F00B3EC017A67EE267AA342FDEEE77AA0EC90
S214008F10017A17EE907A42F8047FF1D1032900F027
S214008F208F80D5ED2A7ADFED3C5AD5F82031394CC2
S214008F30B8EEE76AD5ED2B7AF8EEE76AD5ED2C7A2F
S214008F40B8EEE77AD5ED2D7AF8EEE77A26EE256AC2
S214008F5066EEA56A27EE257A67EEA57A8DED0F6A8E
S214008F60CDED106A8DED117ACDED127AABB92DB03C
S214008F70BDEC028BBDE8F08FCBF1050BBBF1050F06
S214008F807FF7E0AE9FED258A23AC07E79FED2A7AB0
S214008F90F7EE008AB0EE470A62E7D4ED2E7A9FED30
S214008FA0278AF6EE008A67EEA88AB0EE680A07F00F
S214008FB0D9FC20EE080A0022FDEEC07AB0EE680A60
S214008FC0C4ED2A7AC4F8AC20C4F8B02007F0E6FC5A
S214008FD020EE080A019BBDEEC00AD3F8C01084ED4F
S214008FE02D0A04F1A80007F041FDD5F82031094A02
S214008FF0002BBCD0013BC2F820312DB0BDEC028B5B
S214009000BDE8F08F0223C5F820312DB0BDEC028BF1
S214009010BDE8F08FA8470020000080300024744987
S2140090205048002040420F00A4480020E102374785
S214009030AD8BDB684C480020000000000000804E2E
S21400904000F0E4FE00287FF46CAFD5ED2E7AB6EE85
S214009050008A27EE888AB0EE480A07F083FC0023D1
S2140090608DED170AB0EE480A1893199307F096FC90
S2140090700BA8214613AA8DED1A0A06F089FF13A83D
S21400908007F090F81FED137A039BF6EC017A67EE73
S214009090877AA642FDEEE77A17EE902A43F8042F69
S2140090A0F3D1019B0248D3F8C01007F0DFFC9CE721
S2140090B05048002038B5D0F8B830224A13F01003D4
S2140090C008BFC2F82431D0F8203104BF0321C2F80B
S2140090D02011DC0505D4036BD90527D5436FDB05C6
S2140090E024D5D2F83431174A73B1D0F8C030D0F84E
S2140090F0C44015491B1BA1FB03139B09C2F8303162
S214009100FFF7CAFD002038BDD0F8B01044F61F6542
S214009110A94213DCD2F82C412144A942C2F82C11F2
S214009120F0DDC2F83011C2F82C31E9E70321002344
S214009130C2F82011C2F82431002038BDC2F8301120
S214009140DEE700BFA8470020D34D621010B50D4CD7
S2140091504FF49C720021204615F0A8FA20464FF0E6
S214009160804340F8A83F0021C4F8FC3007F07EFC9E
S2140091704FF47A724FF07E53C4F81C21C4F8EC30DA
S21400918010BD00BFA8470020024B002083ED3B0A1D
S214009190704700BFA8470020024BC3F828010020F4
S2140091A0704700BFA8470020024BC3F834010020D8
S2140091B0704700BFA8470020014806F01BBB00BF51
S2140091C0B590000008B5FFF7C1FF054B0548002223
S2140091D0C3F82821C3F83421BDE8084007F012BFC1
S2140091E0A8470020998A0000014807F0C9BE00BFC2
S2140091F0998A0000AFF3008002489621082206F004
S2140092005FBA00BF099200002DE9F04FADB01BA970
S21400921004461DA806F038FA1CA807F077FC0228BA
S2140092200DD09449D4F8E43091F8B0011B9A10B1EF
S2140092309B1A40F0F78000202DB0BDE8F08F636BDE
S214009240032BF8D106F006FA0028F4D0DFF82482C3
S214009250894CD8F8B421D8F8B8311B9D9B1A84FBEA
S2140092600314DB17C3EB6403AA1A92FBF3F3DCB216
S214009270042CE0D8542303FB04F908EB090C9CF8F3
S2140092805030052B00F09A815A1C8CF8502004EBC5
S2140092904404C4EBC404234408EB8304204698F833
S2140092A0C0111D9EE56303F10A021E9C48F8236068
S2140092B0446100231F9848F8220001292093219337
S2140092C022932393249325932693279328932993D5
S2140092D02A932B93674AAED1DDE92001CDE90C0134
S2140092E0DDE92201CDE90A01DDE92401CDE9080125
S2140092F0DDE92601CDE90E01DDE928019C46D2F81C
S214009300B431D2F8B8E11693CDE906019146DDE90D
S2140093102A0100220023CDE91223CDE90401CDF86D
S2140093205CC0CDF844C0714654465D4699F850E09E
S214009330BEF1000F00F0AC804A46CDF860904FF0CA
S214009340000C8946CDE900450BE016999942B8BF56
S214009350194616910CF1010CF44502F1040200F0D6
S2140093608D80D36B116881FB0301040C44EA014431
S214009370091401915169009481FB0301060C46EA29
S21400938001460F14916A81FB03014FEA104A4AEA2C
S214009390014A4FEA214B83FB0301040C44EA0144D3
S2140093A002940914DDE90C4503911168641845EB35
S2140093B0E17511991944CDE90C451191DDE9004597
S2140093C0DDE90E0124184D4120462946DDE90A450F
S2140093D0CDE90E015169641845EBE175DDE906013A
S2140093E080197941CDE90A45DDE90845CDE9060150
S2140093F0916A641845EBE175DDE9040110EB0A009B
S21400940041EB0B01CDE90845CDE90401DDE9124544
S214009410DDE90201001969414B45CDE9120194DAF4
S214009420994697E7D1F8A471D1F8AC21D1F8A801F4
S2140094301D9E1E9D1F9C83FB000183FB078983FBEB
S21400944002AB4FEA184E070C4FEA1A424EEA094E94
S21400945047EA014742EA0B421DA8764414443D44BD
S21400946003211D961E951F9406F0B0F800202DB01F
S214009470BDE8F08F8005002067666666179BDDE90D
S21400948000456344494603F0FF03DDF860901793F8
S2140094905D4B09F1540999457FF448AF169AD8F800
S2140094A0BC31DDF844C0C1EB020A8E46DDE90C0192
S2140094B0CDE92001DDE90A01CDE92201DDE9080157
S2140094C0CDE92401DDE90E01CDE92601DDE906013D
S2140094D0CDE92801DDE904019A45CDE92A01FFF628
S2140094E0AAAE8CFB0C23DDE91245179FDFF818A106
S2140094F0CDF808A0110C41EA034100911B14A4FB0F
S2140095000701019307FB0513CDE908010993DDE97F
S2140095100801DDE90023821A61EB0303CDE90C2381
S2140095206246D317CDE90A2326AE0DF180090697C9
S21400953099E83000DDE90AAB96E8030004FB0BFE71
S21400954005FB0AEE0027A4FB0A45754400FB07FE50
S214009550069F01FB07EEA0FB0701CDE9040171445D
S214009560DDE908AB0591DDE900018B4508BF8245C2
S214009570DDE90C2306F1080609F1080914D0270CCA
S21400958047EA05472C1414971594DDE91445DDE9E0
S2140095900401001B61EB0501090441EA10410004C7
S2140095A002F03AFE029B1860029B043302932CAB37
S2140095B09E42BDD1012388F8B0313CE608EB090095
S2140095C00146403110223C30CDF810C015F053F85B
S2140095D0DDF810C009F1040160464144102215F080
S2140095E04AF808EB0900014618311022143015F02D
S2140095F042F809F1280009F12C01404441441022A8
S21400960015F039F8042342E62407002070B40B4E08
S21400961006F5D273054693E8070085B08DE8070087
S21400962096F8B0318DF80C306C460FCC28600020D0
S2140096306960AA60EB6005B070BC704780050020CA
S21400964070B4034685B0006859689A68DB68074EB0
S2140096506C460FC406F5D2739DF80C4086F8B041F0
S21400966083E80700002005B070BC70478005002026
S21400967010B50B4C002120464FF4E27215F016F898
S214009680084BC4F8B43101234FF4AA014FF4A022CA
S21400969084F8C031C4F8B811C4F8BC21002010BD4D
S2140096A0800500200000D8FF024BC3F8B801002058
S2140096B0704700BF80050020024BC3F8B4010020AD
S2140096C0704700BF80050020024BC3F8BC01002095
S2140096D0704700BF8005002058B1074BD3F8A4217F
S2140096E00260D3F8A8214260D3F8AC318360002032
S2140096F070471620704700BF800500202420704762
S214009700034608B924207047024A002082F8C03178
S214009710704700BF8005002000207047014806F013
S21400972069B800BF0992000008B5FFF7A1FF0A4814
S2140097300A4910224FF49A7307F0B8FC08B10120CA
S21400974008BD074807F05EFC0028F8D1054B01224B
S21400975083F8B12108BD00BF419600000D960000B9
S214009760F99100008005002010B5084C94F8B1016E
S21400977000B910BD064806F03DF8064807F000FCA4
S21400978010B984F8B10110BD012010BD800500207D
S21400979009920000F991000002484FF496710422E5
S2140097A005F08EBFD59D0000002805DD034B012285
S2140097B0C3F88000C3F884200020704744070020C8
S2140097C070B50C4C0C4E0D4D00212046B82214F0FE
S2140097D06DFF0B4A0B4BE2600B4860604FF0804118
S2140097E04FF4FA62A66025606166E267C4F89C30B2
S2140097F0002070BD440700200000B4C20000704284
S2140098000000B4427B142E3E0000F041014805F0F3
S214009810F1BF00BFD59D000008B5FFF7D1FF00B12E
S21400982008BD064A0346C2F88C300123C2F88830C9
S2140098300348BDE8084007F0E5BB00BF440700202A
S2140098409997000010B5044C204605F0D3FF20463B
S214009850BDE8104005F0CEBFD59D0000024B0020AD
S214009860C3F88C00704700BF44070020024B01225B
S214009870C3F88C200020704744070020234B50B1CB
S214009880012817D000220121C3F89810C3F88C20B5
S214009890C3F8902070470021012283ED280A83ED4B
S2140098A0290AC3F89400C3F89800C3F8A810C3F8B0
S2140098B090207047D3ED287A93ED277A70EE677A7A
S2140098C0F0EEE77AF4EEC77AF1EE10FA16D5D3ED9D
S2140098D0297AD3F8942030EE270A0132312A83ED14
S2140098E0290AC3F894200FDDDFED097A80EE270AF7
S2140098F00222C3F8902083ED2A0A70470022C3F89C
S2140099009020C3F894207047704700BF440700209B
S21400991000004842F0B58FB006460D4605A914462D
S21400992006F0FEFD01AA2846314606F0DDF930466F
S214009930294606F0D3FA05AFA4F1040C04F1080298
S2140099400DF1100E01AB3C460020002153F8045FD9
S21400995054F8046B7345C5FB0601F7D1830F43EA41
S21400996081034CF8043F944507F10C07EAD10FB089
S214009970F0BD00BF90ED010A90ED007AD0ED027ABE
S214009980B8EEC00AB8EEC77A20EE000AF8EEE77A1C
S214009990A7EE070AA7EEA70AF1EEC07AF4EE677AFA
S2140099A0F1EE10FA04D19FED070A27EE800A704701
S2140099B008B512F07DFDF0EE407A9FED020A27EE24
S2140099C0800A08BD0000803710B51E4CD4ED007A22
S2140099D0F4EEC07AF1EE10FA06D4D4ED017AB4EEC5
S2140099E0E70AF1EE10FA12D5636F164AA3B1012208
S2140099F000236267A367E26F12499A4206DC4B6F48
S214009A00012B04BF0023CB650023636710BD2369C9
S214009A10012B07D0A36FEEE702F11800916D07F057
S214009A2025F8E4E7D4ED037AF4EEE07AF1EE10FAE6
S214009A30DAD4D4ED027AF4EEE70AF1EE10FAE9D5BC
S214009A40D2E700BF4407002010B52DED028B044678
S214009A50B0EE408A07F04EF80F4B30B9DFED0F7AC4
S214009A60B4EEE78AF1EE10FA10DD00221A615A61B0
S214009A705869094A2044B0F5FA7F586103DD012190
S214009A80002311615361BDEC028B10BD1A69002AD8
S214009A90EED0BDEC028B10BD4407002000401C46F3
S214009AA02DE9F0432DED048BC24D8BB000240494B9
S214009AB005940694D5F8884034B9002318460BB0B0
S214009AC0BDEC048BBDE8F0831C4616468846074668
S214009AD005F0DEFB002840F03081D5F88030DFF856
S214009AE0D492002B11DD0123C9F8843005F0D0FB99
S214009AF0002840F0AA80D9F88030DB1BC9F88030F7
S214009B00002BDCBF0023C5F8843007F081F900285D
S214009B10D3D09FEDA98ADFEDA96A231F06F10802BC
S214009B20341F54F8041F07EE101A53F8041FB8EE3B
S214009B30C77A07EE901A27EE267AF8EEE77A94426E
S214009B4067EE277AA7EEA68AEBD13046FFF712FF1C
S214009B50F0EE408A88EE000AF7EE007AB4EEE70AE6
S214009B60F1EE10FA67DDB0EE670A06F033FFD5F8BF
S214009B708C30904AB0EE408A73B1D2ED007AF4EEA3
S214009B80E78AF1EE10FA07D5D2ED017AF4EEE78A0D
S214009B90F1EE10FA00F3D58007AC864E204606F0AC
S214009BA0FBFF204606F1AC010C2214F04CFD002809
S214009BB055D1D6F89830012B51D0EB6D7D4E5BB960
S214009BC00123F36506F11804583620467C49103404
S214009BD006F06CFFB442F8D1764C01AA404604F178
S214009BE06401FFF797FE04F16401404606F076F93B
S214009BF004A806F005F800EE100A3846BBEECD0ABB
S214009C00FFF722FFB0EE680AF0EE480AFFF7DCFE28
S214009C10AB6FEA6F934201DA3B44A3676B6F654C08
S214009C20002B7FF44BAF206E0744B7F57A7F00F326
S214009C308D80276642E7FFEE007AB4EE670AF1EE03
S214009C4010FA48BFB0EE670A8FE704A805F0D8FF01
S214009C50B0F5C84FD9F88030BFF44FAF50E794E85E
S214009C600700DFF850E1079B0EF1AC0686E8070018
S214009C70A3B9089B93B9099B83B9DEF8982051498C
S214009C80CEF80010012A5049CEF8041078D04F4A7A
S214009C904F4BCEF80820CEF80C308EE72046FFF764
S214009CA069FEB5EE400AF1EE10FAB0EE409A84D0A6
S214009CB0B2EE040A39EE400A20EE000AB1EEC07A8F
S214009CC0B4EE477AF1EE10FA6ED1F2EE047A79EE3F
S214009CD0277A85ED017A67EEA77AB1EEE70AB4EE49
S214009CE0400AF1EE10FA5AD1DDED097A85ED000A48
S214009CF0FAEEC87AB7EE007A87EE899AB4EEC79A7B
S214009D00F1EE10FA32DDB0EE479AB0EE490A06F0F0
S214009D1061FED5ED277A70EE677AB0EE490AC5ED9A
S214009D20027A06F057FED5ED277A30EE270A002392
S214009D3085ED030AC5F88C303FE704A805F0CCFD96
S214009D40CBE6D2F89000FFF799FD25E704F128014D
S214009D50302204F11800236614F08DFC04F148004C
S214009D6004F1580106F0A2FE636FA7E6FFEE007A44
S214009D70B4EE679AF1EE10FA48BFB0EE679AC4E701
S214009D80DEED2A7A9EED277ACEF8983077EEC76A0F
S214009D9077EE877ACEED026ACEED037A0DE7B0EE67
S214009DA0670A12F085FB9FE712F082FBB0EE407A5E
S214009DB08BE700BF4407002000000000000080374B
S214009DC09C070020000070420000F0410000B4C272
S214009DD00000B44270B5044688B001A806F0EAFE5A
S214009DE0D4F8C030D4F8C45004A85D1B06F032FF87
S214009DF004A9064604F1A00201AB2846FFF750FE70
S214009E0005F078FB304608B070BD00BF014B586FB8
S214009E10704700BF4407002090ED017AD0ED007A2D
S214009E20D0ED026AB8EEC70AB8EEE77A20EE000A6E
S214009E30F8EEE66AA7EE070A38B590ED037AA6EEC6
S214009E40A60AB8EEC77AA7EE070AB5EEC00AF1EE84
S214009E5010FA37D9F1EEC06A0C460546F4EE666A8B
S214009E60F1EE10FA36D1B7EE007A87EE260A9FEDAD
S214009E701D6AF8EEE77A20EE060A67EE807AFDEEB7
S214009E80E77AC4ED007AD5ED017AF8EEE77A67EE68
S214009E90807AFDEEE77AC4ED017AD5ED027AF8EE27
S214009EA0E77A67EE807AFDEEE77AC4ED027AD5EDC2
S214009EB0037AF8EEE77A27EE800ABDEEC00A84ED54
S214009EC0030A38BD00234FF0804281E80C008B6007
S214009ED0CB6038BD12F0ECFAD5ED007AF0EE406AB1
S214009EE0C1E700BF0000804E08B5084B0849186857
S214009EF0082214F0A8FB08B1322008BD0548C82186
S214009F001322BDE8084005F0DBBB00BF8C04002030
S214009F1018030200CDA70000F0B5866986EAE6734E
S214009F20A3EBE673B3F5803F89B060DAC369002B14
S214009F30B8BF5B42B3F5803F61DBB3F5C80F75DD94
S214009F403F4D0323AB63836A6A6B3D4F9A420446D8
S214009F506ED007EE903ADFED3B6A9FED3B7A7B636F
S214009F60F8EEE77AC7EEA67A67EE877A17EE900ADB
S214009F7001F0BEFC30A3D3E9002301F00DFD002262
S214009F80324B01F009FD0022314B01F02FFE01F0AB
S214009F909DFF0146386300233046009305F07CFEA3
S214009FA0296B0190E06905F077FE296B0290206A24
S214009FB005F072FE04AA03906946214805F094FE57
S214009FC0049D059C069A079B1D489B0104A9AE01AB
S214009FD0A50194010246079304960595069405F09C
S214009FE04DFF17480146FFF717FF09B0F0BDB3F560
S214009FF0C80FA5DCC369002BB8BF5B429DE7036AA8
S21400A00083EAE372A2EBE372B2F5803F09DB002B32
S21400A010B8BF5B42B3F5C80F92DC094D0223AB63B1
S21400A02091E7074B00229A6309B0F0BD036AEEE79A
S21400A030396BB0E7AFF30080182D4454FB2109407C
S21400A040FC070020002474490000004E0000704009
S21400A05000806640036B5B0600D55DE7704700BF77
S21400A06030B50A4C85B005466946204605F036FFF1
S21400A0702846694604F1200205F036FE286869681D
S21400A080AA68EB6810340FC405B030BDFC0700208A
S21400A0902DE9F043436F2DED048B03F05003402B66
S21400A0A09DB0044600F04382D0F82011A64E01F081
S21400A0B05003402B00F0E282CD0500F15B81236B5C
S21400A0C0590600F11F82A04D05F1100205F120008F
S21400A0D0294605F009FE636F5A0656D5D4F82021A6
S21400A0E0236B1343DB0556D505F1100004F15C0124
S21400A0F010AA05F017FF226EE06D616E82FB022348
S21400A100C0FB0023C1FB01236FF040484FF002095B
S21400A110904579EB0303C0F2BD82B36B042B00F0CD
S21400A120CC829A1E012A40F2F181012B00F00083B6
S21400A1300124864BA40003FB04F411980025214655
S21400A1408002149505F0A8FD109B159058422146F4
S21400A150800205F0A1FD18AA16907D49179514A84F
S21400A16005F0C2FD7A4818A9024605F087FE784831
S21400A1700146FFF751FE6946734805F0AFFE744886
S21400A180694600F1100205F0AFFD00201DB0BDECE1
S21400A190048BBDE8F083D4ED187AE56EB8EEE70AD6
S21400A1A0D4ED177A20EE000AB8EEE77AD4ED197AE5
S21400A1B0A7EE070AF8EEE77AA7EEA70AF1EEC07A4E
S21400A1C0F4EE677AF1EE10FA40F0DC829FED617AE9
S21400A1D0F0EEE76AF4EEC76AF1EE10FACBDD94ED26
S21400A1E0176AD4ED186A94ED190A96ED047A9FED75
S21400A1F05A5AB8EEC66AF8EEE66A86EE276A18AFCE
S21400A200002304AA384614A91493C6EEA76AB8EE2B
S21400A210C00AF8EEC75AC0EE277A96ED057A8DED9D
S21400A220156AB8EEC76A96ED067ACDED166AF8EEB0
S21400A230C76A96ED077ACDED177AB8EEC77A26EE9E
S21400A240056A66EE856A27EE057A65EE855A8DED17
S21400A250196ACDED1A6A8DED1B7ACDED185A05F008
S21400A26097FE38460CA906F02FF904A80CA908AAF0
S21400A27005F08EFEDDED096A9DED0A6ADFED377AA0
S21400A28026EEA67AA6EE067AB4EEE77AF1EE10FA95
S21400A29000F11B82DFED327AB4EEE77AF1EE10FAC7
S21400A2A000F15A82DFED2F7ADFED2F5AB4EEE77A0F
S21400A2B0F1EE10FAF5EE007A48BFF0EE675A07EEB8
S21400A2C0105ADFED2A7AB8EEC77A002387EE277A8F
S21400A2D010A8394608AA1093139367EE257A26EE3F
S21400A2E0276A66EEE77A8DED116ACDED127A05F0F3
S21400A2F04FFE08A80246394605F014FF08A806F0E7
S21400A30061F8DFED1B5A9DED086ADDED096A9DEDEB
S21400A3100A7ADDED0B7A26EE256A66EEA56A27EE4A
S21400A320257A67EEA57ABDEEC66AFDEEE66ABDEE54
S21400A330C77AFDEEE77A86ED046AC6ED056A86ED15
S21400A340067AC6ED077A16E7FC070020A69BC4002F
S21400A3500C080020000080460000803017B75139F6
S21400A3600AD7233CCDCC4C3ECDCCCC3E0014CD47BA
S21400A3700000804E48067FF5A6AED4F81021376858
S21400A380D4F82C51DB4BDC4803FB05F3D21B9A4276
S21400A390CCBF0323022311F40071836340F08F8146
S21400A3A010ADD54F284605F06FF9284607F13C0159
S21400A3B00C2214F048F928B9BB6DD4F828219A422B
S21400A3C000F0D98118AF3B462088616A2A4606F01D
S21400A3D001FADDED197A9DED187AF8EEE77AF8EED7
S21400A3E0C76A67EEA77A9DED1A7AE6EEA67AB8EE09
S21400A3F0C77AE7EE077AF1EEE78AB0EE670AF4EE80
S21400A400688AF1EE10FA40F0D181DFEDBC6A9FED6C
S21400A410BC7AD4F82881DFEDBB7A9FEDBB8A68EE64
S21400A420A66A06EE108A86EE877AB8EEC66A27EE29
S21400A430277AF6EE006A67EE067AC7EE887A27EE87
S21400A440A68AB0EE480A06F08DFAB0EE409AB0EE54
S21400A450480A06F0A3FAF0EE007AF4EEE78AF1EE88
S21400A46010FA00F13581DDED187A9FEDA86AF8EE56
S21400A470E76ADDED197AB8EEE77ADDED1A7A20EEB6
S21400A480460AF8EEE77A60EE266A20EE077A20EEB5
S21400A490270AC6EEA86A87EE287AC0EE287A29EE42
S21400A4A0069AFDEEE66ABDEEC77AFDEEE77ABDEEE9
S21400A4B0C99AC6ED136A86ED147AC6ED157A86ED4E
S21400A4C0129A95E80700924BC6F8588083E8070072
S21400A4D004F5887528463A468E4905F005FC14AA08
S21400A4E039468D4805F000FC28468B4905F0F6FCF9
S21400A4F014A981483A4605F0F7FB38467E49FFF72F
S21400A5008BFCE0E52046FFF707FDDCE5E16E834CBB
S21400A510CA1784FB0114C2EBE424012CB8BF012443
S21400A520032B7FF406AE7E4B03FB04F405E6D0ED6A
S21400A530187AB8EEE70AD0ED177A20EE000AB8EEE1
S21400A540E77AD0ED197AA7EE070AF8EEE77AA7EED3
S21400A550A70AB1EEC08AB4EE488AF1EE10FA40F0CF
S21400A5600C81B7EE007AB4EEC78AF1EE10FA40F22C
S21400A570B780D4ED197AF8EEE77A87EE888A37EE58
S21400A580487AB5EEC07AF1EE10FAC6BFB6EE000A0B
S21400A59027EE000A9FED630AF1EEC08AF4EE688AA1
S21400A5A0F1EE10FA40F0FD80B7EE000A38EE008AB1
S21400A5B0B5EEC08AF1EE10FAC6BFB6EE000A28EE77
S21400A5C0000A9FED580AB1EEC09AB4EE499AF1EE31
S21400A5D010FA40F0E180D4ED187AB8EEE70AD4ED30
S21400A5E0177A20EE000AF8EEE77AA7EEA70AB1EE91
S21400A5F0C07AB4EE477AF1EE10FA40F0C880F7EE73
S21400A600007AB4EEE77AF1EE10FA69D9D4ED187A4A
S21400A61094ED176ADFED3D6A374EF8EEE77AB8EE4E
S21400A620C60AC7EE877A0023F36180EE077A68EEE3
S21400A630A77A68EEC78A67EEA67A29EE269A68EEAB
S21400A640A68AFDEEE77ABDEEC99AFDEEE88AC6ED6B
S21400A650057A86ED049AC6ED068AD4F82031DB0525
S21400A66074D46946244805F039FC2F48694600F141
S21400A670100205F039FBD4F820111DE500F58870AE
S21400A68006F15C0105F02AFC636FDF0567D4D4F899
S21400A690201111E50CA806F0FFFB0D9A0C980E99F8
S21400A6A082FB0223C0FB0023C1FB0123904579EB0C
S21400A6B00303BFF632AD0423AB6300243DE504F587
S21400A6C088700D49FFF7A8FBFDE4DFED185AF6E5A4
S21400A6D000234FF08042B264F36433657365F0E69E
S21400A6E0054E00234FF0804232617361B361F3611F
S21400A6F0B3E700BF71981C00FC070020DB0F494041
S21400A7000000344300008037002474490000804E67
S21400A710380800204408002058080020AD8BDB686D
S21400A720A69BC400000000000C080020A69BC43BAB
S21400A730E26E214CD31784FB0224C3EBE424002CE6
S21400A740C9BF1E4B1E4CE4005C43F6E404F588705B
S21400A7501C4905F0C3FB84E7DFED1B5AAFE56946ED
S21400A760304605F0BBFB694606F1100006F12002F4
S21400A77005F0BAFA8BE718AFAAE611F099FEB0EE2C
S21400A780408AEEE611F094FEF0EE407A1EE511F0F7
S21400A7908FFEB0EE407A32E711F08AFEB0EE409AB5
S21400A7A019E711F085FEF0EE408AFDE611F080FE16
S21400A7B0F0EE408A29E600BFAD8BDB68A69BC4009E
S21400A7C030DD2406580800208FC2753D38B5036B6F
S21400A7D0DC0502D4436FD9050FD5D0F8203103F439
S21400A7E04073B3F5407F044611D0FFF751FCA16BD0
S21400A7F00C4806F01BF9002038BDD0F82031DA05E9
S21400A800F9D503F44073B3F5407F0446EDD1054D0A
S21400A810D0F81001D4F81411D4F81821D4F81C314B
S21400A8200FC5E4E70C080020014804F0E3BF00BFB2
S21400A830CDA7000010B5074C002120466C2213F06F
S21400A84035FF4FF08043236123602362E363E365B3
S21400A850002010BDFC07002008B5FFF7EBFF00B195
S21400A86008BD0248BDE8084006F0CCBBE99E0000E3
S21400A87008B5044804F0BEFF0348BDE8084006F0EB
S21400A8807FBB00BFCDA70000E99E0000AFF30080AD
S21400A89007EE900AB8EEE77ADFED117ADFED116A7F
S21400A8A067EE277AB6EE007AC7EEA67A38B5054682
S21400A8B00D4C67EE877A17EE900A01F019F841EC16
S21400A8C0100B11F00DFB0022084B51EC100B01F0A1
S21400A8D063F801F0FBFAC4F88050C4F8840038BD71
S21400A8E0368D274000247449680800200000D041B7
S21400A8F0024840F25231012204F0E2BE39AE0000B6
S21400A90070B5294CB7EE000A04F5E471F0EE400A83
S21400A910064604F1E000FBF777F904F1E00004F5E1
S21400A920D47104F15002FBF7AFFB054608B9284680
S21400A93070BD636801336360D4E9140101F0C6FAA0
S21400A940316805F0A9F907EE900AFAEEC87A17EE14
S21400A950900A00F0CDFFC4E91401D4E96A0101F0C1
S21400A960B5FAA065D4E96C0101F0B0FAE065D4E967
S21400A9706E0101F0ABFA0AA3D3E900232066D4E9FE
S21400A980680101F099FA0028D1D09FED080A04F179
S21400A990E0000146F0EE400AFBF736F9284670BDA7
S21400A9A0000000000070A74068080020CDCCCC3E18
S21400A9B0044B0549054A196259629962DA621A63BC
S21400A9C05A6370476808002000401CC600401C46BA
S21400A9D00C4B03F10C02B3EC017AD3ED247AB4EEFF
S21400A9E0E77A93ED027AF1EE10FAF4EEC77A48BFF2
S21400A9F043ED017AF1EE10FA48BFC3ED027A9342B6
S21400AA00E9D1704788080020F0B50F4BB0F94AC06E
S21400AA10B0F94CE0B0F948709E6EDD6E5C6E024692
S21400AA2085B00B46C6EB0C46C5EB0E45916EB0F8EE
S21400AA3044000296C4EB074401AA0395019405F06E
S21400AA40C9FE05B0F0BD00BF6808002090ED037A8F
S21400AA50D0ED047AB4EEE77AF1EE10FA14DDD0ED1C
S21400AA60056AB4EEE67AF1EE10FA2FDDF4EEE67A39
S21400AA700023F1EE10FA0364A7BF0122022302228C
S21400AA80012342648364704714D5D0ED056AF4EE62
S21400AA90E67AF1EE10FA0DDDB4EEE67A0123F1EE79
S21400AAA010FA0364A7BF0022022302220023426496
S21400AAB083647047B4EEE77A0223F1EE10FA03647B
S21400AAC010DA01220023426483647047B4EEE77A0A
S21400AAD0F1EE10FA04D5F4EEE67AF1EE10FADBDCCD
S21400AAE0022303640022012342648364704700BF8C
S21400AAF00023002201214167C2648267036043622B
S21400AB00436083628360C362704700BF30B4002333
S21400AB10002214250A24012185650466416780F811
S21400AB207020C2648267426503604362436083624A
S21400AB308360C36230BC70472DE9F0432DED028B75
S21400AB4087B06946FFF760FF03AD9FED258A0026B4
S21400AB500027E9462C460DF11808F9EC017AF8EEC4
S21400AB60E77A67EE887A27EEA77AE4EC017A17EEA2
S21400AB70100A00F0BDFE02460B463046394600F08D
S21400AB8059FD444506460F46E7D147EC106B11F0D9
S21400AB902FFC144C59EC108B04F10C0655F8040BE2
S21400ABA000F0A6FE42464B4601F020F801F0D6F92A
S21400ABB0D4ED007A07EE100A77EE877AE4EC017A95
S21400ABC0B442EBD1084BD3F8842401210A44C3F8DD
S21400ABD08424C3F8AC1407B0BDEC028BBDE8F08348
S21400ABE000008037980C0020680800202DE9F0430C
S21400ABF087B0064602AA0DF1070103A804F0F0FE8E
S21400AC00DDED037A67EEA77A06F10C0717EE900AD9
S21400AC1000F06EFE0022002300F00CFDDDED047A4D
S21400AC2067EEA77A044617EE900A0D4600F060FE1F
S21400AC3002460B462046294600F0FCFCDDED057A70
S21400AC4067EEA77A04460D4617EE900A00F050FE0F
S21400AC5022462B4600F0EEFC41EC100B11F0C8FB30
S21400AC6059EC108B03AD344655F8040B00F040FE4B
S21400AC7042464B4600F0BAFF01F070F9D4ED007A78
S21400AC8007EE100A77EE877AE4EC017ABC42EBD145
S21400AC90736D012213447365F26707B0BDE8F08355
S21400ACA0D0ED0F4AD0ED147AB7EE006AF8EEE75A08
S21400ACB034EEC66A10B50021044603460322D3EDDF
S21400ACC0007A93ED095AD3ED066AC7EEA57AF5EE3B
S21400ACD0C07AF1EE10FAB4BFB1EE677AB0EE677ADA
S21400ACE0C3ED067AE5EE067AF5EEC06AC7EEA47AFC
S21400ACF0F1EE10FAB8BFF1EE666AF5EEC07AF1EE44
S21400AD0010FA37EE667AC3ED097AB8BFF1EE677AC5
S21400AD10013A83ED0C7AC3ED037A43F8041BCED1D7
S21400AD202046FFF793FEE36C226CB3F57A7FBCBF38
S21400AD300133E36494F87030052B07D8DFE803F09E
S21400AD4027032F424E07E36F012B62D010BD04EBA2
S21400AD50820292ED037AD4ED1A7AB4EEE77AF1EE37
S21400AD6010FA0DD9106B00F0C3FD31A3D3E9002310
S21400AD7001F08EF8002853D0E26C236E9A424EDB28
S21400AD800123032284F870206367A36710BD0123A4
S21400AD9000226367A36784F87030E26410BD04EB9A
S21400ADA08202D2ED037A94ED197AF4EEC77AF1EEC8
S21400ADB010FA27DA94ED1A7AF4EEC77AF1EE10FA62
S21400ADC017D8DDE704EB820292ED037AD4ED197A08
S21400ADD0B4EEE77AF1EE10FA14DA10BD04EB820254
S21400ADE092ED037AD4ED1B7AB4EEE77AF1EE10FA20
S21400ADF0ACD801230521002284F87010E264636752
S21400AE00A36710BD0023042284F870206367A3673D
S21400AE1010BD0222002384F87020A36710BD10BD69
S21400AE200423E0646067A06784F8703010BD00BF3C
S21400AE309A9999999999A9BF2DE9F04F2DED068B0E
S21400AE408046C06ED04C95B044F61F6200259042F6
S21400AE5007950895099523DDD4F88030984201D0EF
S21400AE60FFF716FDD8F83030C4F8B0344046FFF788
S21400AE7063FED4F88424D4F88034C34D9A421BDA97
S21400AE80D4F8A834C04A012B22D0D4F8A434012B1D
S21400AE9000F0E880002015B0BDEC068BBDE8F08F12
S21400AEA0D4F8483318449042C4F84803F2DDFFF75C
S21400AEB0EFFCC4F84853D5E705F58660FFF7F0FECB
S21400AEC00023C5F88434D4F8A834AF4A012BDCD16B
S21400AED0D2F894300DF1280A012B08BF0023514602
S21400AEE0404608BFC2F89430FFF78EFD0DA805F067
S21400AEF061FE0B9A0D990A9F0F9D0C9BA3480E9E10
S21400AF00A3EBA533A7EBA137A2EBA636011D602263
S21400AF1000F118090C930A970B9613F0ACFB9AE80D
S21400AF20070010AD89E80700284605F0B5FF09F1CF
