S0180000636C61795F67355F64656D6F5F6770696F2E686578BE
S11300000000002071370000B9320000D532000032
S1130010D5320000D5320000D5320000D5320000C0
S1130020D5320000D5320000D5320000D5320000B0
S1130030D5320000D5320000D5320000D5320000A0
S1130040D5320000D5320000D5320000D532000090
S1130050D5320000D5320000D5320000D532000080
S1130060D5320000D5320000D5320000D532000070
S1130070D5320000D5320000D5320000D532000060
S1130080D5320000D5320000D5320000D532000050
S1130090D5320000D5320000D5320000D532000040
S11300A041280000D53200002D1B0000D53200008D
S11300B0D5320000D5320000D5320000D532000020
S11300C0D5320000D5320000D5320000D532000010
S11300D0D5320000D5320000D5320000D532000000
S11300E0D5320000D5320000D5320000D5320000F0
S11300F0D5320000D5320000D5320000D5320000E0
S1130100D5320000D5320000D5320000D5320000CF
S1130110D5320000D5320000D5320000D5320000BF
S1130120D5320000D5320000D5320000D5320000AF
S1130130D5320000D53200004D170000D532000042
S1130140D5320000D5320000D5320000D53200008F
S1130150D5320000D5320000D5320000D53200007F
S1130160D5320000D5320000D5320000D53200006F
S1130170D5320000D5320000D5320000D53200005F
S1130180D5320000D5320000D5320000D53200004F
S1130190D5320000D5320000D5320000D53200003F
S11301A0D5320000911C0000D5320000D532000089
S10F01B0D5320000D5320000D53200002A
S1130400FFFFFFFFFFFFFFFFFFFFFFFF7EFBFFFF7D
S1130410002902D0B0FBF1F0704708B14FF0FF3073
S113042000F008B80029F8D00246B0FBF1F000FB58
S113043011217047704700BF03685A004CBF43F056
S1130440004323F00043C018704700BF2DE9F04F6C
S1130450064683B0914611B30139019188460027BD
S113046007EB080404EBD470441006EBC40B5846A5
S1130470FFF7E2FF019B651CA342824606EBC50021
S113048015D0FFF7D9FF421ECA4504D9BC420BD090
S113049004F1FF38E4E74A4502D22F46E0E78B46F1
S11304A0584603B0BDE8F08F4FF0000BF8E7CA459B
S11304B0ECD8F5E7012807D0022807D0044B002820
S11304C00CBF184600207047024870470248704726
S11304D0D10B0000C90B0000C10B0000036810B56C
S11304E00446D80706D4990704F1480009D500F05A
S11304F089FD23685A0709D518070ED5D90613D5DF
S113050010BD00F077FD23685A07F5D404F1D0003C
S113051000F080FD23681807F0D404F5D87000F0CB
S113052081FD2368D906EBD404F50C70BDE81040B6
S113053000F0BCBD30B5244B83B004468D1E002BA7
S11305403CD001A92846AFF300800146002921D000
S11305502A460199FFF77AFF0546F0B1FFF76CFFD1
S11305606A68A064012A11D0281D002A22DBFFF743
S113057063FF0023E06423650268002A10DBFFF7B1
S11305805BFF00232061184603B030BD00202061CA
S11305900523F8E721610923F5E720610923F2E740
S11305A0C2F30360FFF786FF206100280CBF092314
S11305B00023E8E70121E0642165DDE703480449FD
S11305C00A1AD3100193C3E7000000005485000009
S11305D014870000036803B11B181846704700BF56
S11305E009207047704700BF2DE9F0470C1D0646EF
S11305F017460FCCADF5916D03AD0FC50FCC0FC5EC
S11306000FCC0FC594E80F0002ACD6F80C80D6F8D6
S1130610189085E80F0000233046216C23609F4228
S113062014BF0A270927FFF785FF05469DB1A06B74
S113063000943246606447F01001CDF80490012024
S11306403346C04700280CBF2846092022B00DF5C8
S1130650806DBDE8F087236C21464FF410727361FE
S113066092A807F0D4F9314692AA336938469847DC
S1130670A0990094824661640120CDF80490394623
S113068032463346C04790B9204692A94FF41072BF
S113069007F0BDF9BAF1080F06D13046216CFFF717
S11306A049FF09270546C1E7BAF1070F01D0092020
S11306B0CCE72846216CFFF795FF03A800F08EFCD9
S11306C070B504460D462046296CFFF733FF0646F5
S11306D050B92A6C23696261012021462A46984751
S11306E00828F0D0072801D007F07AF83046296CA2
S11306F0FFF778FF281D00F071FC00BF406C7047C5
S1130700CB6BF0B50B640D1D0F4606460FCDADF552
S1130710117D01AC0FC40FCD0FC40FCD0FC495E8EC
S11307200F0084E80F004FF0FF300090304610991E
S1130730FFF700FF58B9346931466A46A0470828D4
S11307400446F3D06846FFF7C9FE062C03D00920FF
S11307500DF5117DF0BD30463946FFF7B1FF00BFFE
S113076030B4DD6BC16082610446194600221D6409
S113077030BCFFF739BF00BF70B54369C6680B646E
S113078004460D4626B10122FFF72EFF07F028F894
S11307900369214602202A469847072803D00828DF
S11307A008D007F01DF83046296CFFF71BFF281D01
S11307B000F014FC20462946FFF782FFC26810B4FB
S11307C02AB1CC6B00220C6410BCFFF70DBF10BC27
S11307D0FFF796BF704700BF08B5836801460BB1A9
S11307E00120984708BD00BF11B933B102207047FA
S11307F004298CBF0220012070470F2AF6D800EB91
S1130800820218465168009B1960704700B585B094
S11308100A4603AB002100930B46FFF7E5FF03985C
S113082005B000BD11B933B10220704704298CBF53
S11308300220012070470F2AF6D8009900EB8202AB
S1130840096818465160704710B584B004AB0C4673
S113085043F8042D0021009322460B46FFF7E2FFE4
S113086004B010BD2DE9F04FCE6C8DB00C4656F897
S1130870041B1D46174600F0030809910A96E3B9C4
S11308800902032209918DF82D308DF82C20236D57
S1130890B8F1020F08BFA66B13F001011BD00020B2
S11308A00290022D40F38980FFF79AFE002800F0A1
S11308B08B8009200DB0BDE8F08F022BE7DC0B0C18
S11308C0DAB209048DF82D30022309918DF82C3009
S11308D006EB8206DBE700F00803029104F15802FC
S11308E0D9B203920491D6F80090B9F1000FD8D090
S11308F0022D41D0B6F80090B6F802A00436A36CDD
S11309000F212AF0010B38469B44FFF77FFF8345F4
S113091018D829F00102934458452CBF0020012027
S11309200AF0010A09F0010949EA4A09B9F1010F7B
S113093026D009D2B8F1000F02D0002840F004817B
S11309400436D0E70020EBE7B9F1020FB1D13368E8
S113095023F0004AB8F1000F3CD130B1049A002AC8
S113096060D0BAF1000F00F0C380002B3EDB0AF127
S1130970010A06EB8A06B6E7D6F804A00836BEE7F5
S1130980B8F1000F34D1B0B17168D6F800908A1C68
S11309908FD0039B08934B1C00F0BC80301DFFF7E5
S11309A019FE4FEAD972014608AB204606F07AF8E0
S11309B0002840F0F380083695E7384609A900F08E
S11309C009FC00287FF475AF0298002840F0AC8041
S11309D008206FE70D213846D4F82090FFF716FF62
S11309E0814500F0C4803368002BC0DA0436BEE7CA
S11309F00D213846D4F82090FFF708FF8145DAD15D
S1130A00A06A8642D7D13046FFF716FD0F21024671
S1130A103846FFF719FF384600212246FFF714FF36
S1130A20072047E7BAF1000F62D006F1040C039ADD
S1130A30CDF804C00AF1FF3101F0010360460593CB
S1130A400892FFF7C7FD049A014608AB2046914679
S1130A5006F028F84FF0010BDDF804C0002855D14A
S1130A60D3450CF1040ED94642D00598B8B1039988
S1130A70CDF804E070460891FFF7ACFD0022014672
S1130A8008AB204606F00EF80BF1010BDDF804C0AC
S1130A9000283BD1D345D9460CF1040E28D0079544
S1130AA0039D0596CDF81880F34658460895FFF740
S1130AB091FD0022014608AB204605F0F3FF0BF13F
S1130AC0040806460BF1080B404609F10108CEB9AB
S1130AD00895FFF77FFD3246014608AB2046C14624
S1130AE005F0E0FF70B908F10109D145DDD1059E9B
S1130AF038460D21FFF78AFE089A20626262A662D8
S1130B000620D7E6059EDDF81880079DCA457FF4C8
S1130B106AAFEDE738460D21FFF778FE20620899A9
S1130B206162A6620620C5E60F213846FFF76EFE15
S1130B300E2102463846FFF787FE38460F211F4A2A
S1130B40FFF782FE0720B5E63046FFF775FC043652
S1130B500546A663204605F0FDFF00283FF4A9AE34
S1130B6038460F212A46FFF76FFE0720A2E6A16A46
S1130B708E427FF438AF301D00230422C4F828A02D
S1130B80E362226360633168002902DB0120029082
S1130B90EDE60AF1010306EB830035E702460D2179
S1130BA038460192FFF732FE206201980228B6D13E
S1130BB02346089A43F82C2F6362B2E7896C00003D
S1130BC00223FFF74FBE00BF0123FFF74BBE00BF58
S1130BD00023FFF747BE00BFD36BF0B51364151DA8
S1130BE007460E460FCDADF5277D17AC0FC40FCDCC
S1130BF00FC40FCD0FC495E80F0084E80F004FF029
S1130C00FF30169026996846FFF794FC6A460C213B
S1130C1080B916A8FFF718FE314616A8B8476946EA
S1130C2016AA38B90820049B98470528044602D020
S1130C300928E7D1092416A8FFF750FC20460DF532
S1130C40277DF0BD2DE9F0470446E8B004290CD80F
S1130C50DFE801F0380391930F00150C012B96B2D5
S1130C6000F07581052B00F0C480022068B0BDE857
S1130C70F087002BF9D1102AF7D82368D80600F1A1
S1130C80758102A8019200F01BFA019AA36BD107A7
S1130C9044BF53F8041B0291900744BF53F8041B4C
S1130CA00391500744BF53F8040B0490100748BF46
S1130CB053F8042B02A8A36348BF059200F0F6F989
S1130CC00020D3E7002BD0D1A36BD00744BF53F847
S1130CD0041B6160910744BF53F8041BA1605007D3
S1130CE044BF53F8041BE160110744BF53F8041BCD
S1130CF02161D00644BF53F8041B6161910644BFCF
S1130D0053F8041BA161500644BF53F8041BE1616E
S1130D10110644BF53F8041B2162D00544BF53F8A5
S1130D20041B6162910544BF53F8041BA162500582
S1130D3044BF53F8041BE162110544BF53F8041B7C
S1130D402163D00444BF53F8041B616312F40050C0
S1130D501CBF53F8041BA163510444BF53F8041B84
S1130D60E163120444BF53F8042B2264002840F0CA
S1130D70EC80A3637AE7012078E7032B7FF475AF57
S1130D80150C96B27319102B3FF66FAF276839070D
S1130D9000F1FE8026A800F067F9A06B770026A971
S1130DA0034601EBC5057A1EEFB101682B4602F03C
S1130DB0010643F8041BB91E9AB136B15A1B013916
S1130DC0125843F8042B4A1C0BD05E1B1A463658A3
S1130DD042F8046B561B023936585E60131D4A1CD8
S1130DE0F3D100EB870326A8A36300F01BF90020CE
S1130DF03CE77719202F3FF638AF0F2D40F2B18032
S1130E00B24676B30F2D11D82268D1070ED522F041
S1130E100101052B2160204600F0D68022F0030258
S1130E2040F8482B019300F0E9F8019BBAF1000F58
S1130E3003D02268500700F1B380012B00F0BA8080
S1130E400F2D04D846A8019300F0E0F8019BBAF1F5
S1130E50000F06D006A8019300F0E0F8019BC5F14D
S1130E601006D4F838C0002EE0462CDD46A800EB6E
S1130E70C5084FEA4609DCF80000424609F1FF368E
S1130E8042F8040B06F00101A9F10200CEB141B110
S1130E90C8EB0201013851F80C1042F8041B411C44
S1130EA00FD0C8EB0206114656F80C6041F8046BEB
S1130EB0C8EB0106023856F80C6056600A1D411C46
S1130EC0EFD10CEB8908BAF1000F2FD0102D2CBFF5
S1130ED02A46102268AF07EBC2014FEA4A0CD8F841
S1130EE00000A1F502720CF1FF3942F8040B09F07D
S1130EF001014646ACF10200B9F1000F14D039B13A
S1130F004646013856F8041F42F8041B411C0BD016
S1130F10D6F804901146023841F8049BB7680836A5
S1130F2057600A1D411CF3D108EB8C08012B27D014
S1130F300F2DC4F8388002D846A800F063F8BAF13F
S1130F40000F02D006A800F065F800208EE67119A3
S1130F5010293FF68AAE0F2D3FF687AE4FF0000AF8
S1130F6052E7102FFAD9A7F1100A4BE723F010002B
S1130F70206004F50C70019200F0A2F8019A80E65A
S1130F8008F1040346A8A36300F034F800206DE6DA
S1130F9027F00802226004F5D87000F065F8F9E63D
S1130FA0204622F0040140F8D01B019300F036F8EB
S1130FB0019B42E746A8019300F020F8019BBAF197
S1130FC0000F7FF44CAF4CE741F0020140F8481B9E
S1130FD0019300F01BF8019B28E700BF00F13401E6
S1130FE091E838009C46A6464CF8045D90E8FF0F53
S1130FF0E54600BD90EC210B704700BF80EC210B4F
S1131000704700BF90EC200B704700BF80EC200BB2
S1131010704700BFD0EC200B704700BFC0EC200B22
S1131020704700BFF0EC0201F0EC0211F0EC022179
S1131030F0EC0231F0EC0241F0EC0251F0EC026110
S1131040F0EC0271F0EC0281F0EC0291F0EC02A100
S1131050F0EC02B1F0EC02C1F0EC02D1F0EC02E1F0
S1131060F0EC02F1704700BFE0EC0201E0EC021189
S1131070E0EC0221E0EC0231E0EC0241E0EC025150
S1131080E0EC0261E0EC0271E0EC0281E0EC029140
S1131090E0EC02A1E0EC02B1E0EC02C1E0EC02D130
S11310A0E0EC02E1E0EC02F1704700BFB0FC01812A
S11310B0B0FC0191B0FC01A1B0FC01B1704700BFCC
S11310C0A0FC0181A0FC0191A0FC01A1A0FC01B144
S11310D0704700BFEC4600B52DE900502DE9FF1F15
S11310E04FF000032DE90C0001A9FFF709FBDDF81F
S11310F040E012B0704700BFEC4600B52DE9005047
S11311002DE9FF1F4FF000032DE90C0001A9FFF7A3
S113111033FBDDF840E012B0704700BFEC4600B589
S11311202DE900502DE9FF1F4FF000032DE90C00BD
S113113001A9FFF743FBDDF840E012B0704700BFA0
S1131140EC4600B52DE900502DE9FF1F4FF00003D8
S11311502DE90C0001ABFFF703FBDDF840E012B012
S1131160704700BFEC4600B52DE900502DE9FF1F84
S11311704FF000032DE90C0001AAFFF72DFDDDF867
S113118040E012B0704700BF027A03461AB9427AAF
S113119042B9B0207047511E0068197201021960EB
S11311A0000E70474168501E587251F8040B032218
S11311B059601A72F2E700BF00B585B0002103AB95
S11311C000930C220B46FFF70FFB039805B000BDFC
S11311D0FFF7F2BF2DE9F043064685B00D464FF008
S11311E000082846FFF7D0FFB028044600F0BE8070
S11311F020F07F02D1B201B300F0F000802879D052
S113120090283BD0A02847D0B0285BD0C02800F05D
S1131210898004F0F803D02B0BD104F00704621C7E
S11312203046012142F400220523FFF70BFD00287C
S1131230D7D0092005B0BDE8F0834FEA800903AF99
S11312400B465FFA89FC009730460D220CF1040925
S1131250FFF7CAFA04F04001C8B2039B50B903EB8C
S1131260090403940021009730460D220B46FFF732
S1131270D9FAB6E7C9EB03020392F3E704F00F02CD
S11312800D2AD6D00F2AD4D003AF00210B460097E5
S11312903046FFF7A9FAE5E7E1434FF47F6301F035
S11312A0070204F0080043FA02F2C4B21A400CB177
S11312B042F48042002130460B46FFF7C3FC00286D
S11312C0B7D18EE7B12C65D0B22C76D0B32C00F018
S11312D0A68004F0FC00B4284ED004F007014B1C97
S11312E0012143F4002230460B46FFF7ABFC0028F3
S11312F09FD176E72846FFF747FF24020443B4F55D
S1131300004F96D0220500213046120C0B462401D2
S1131310FFF798FC00288CD114F4004F18BF4FF04D
S113132001085EE7C62C00F08D80C72C00F0948085
S113133004F0F801C02900F0A280C82C00F0BE809F
S1131340C92C7FF476AF2846FFF71EFF00F00F0389
S1131350013300F0F00243EA023230460121052352
S1131360FFF770FC00287FF464AF3AE7B8F1000F90
S113137000F0938000205DE704F00302531C022177
S113138043F4802230460B46FFF75CFC00287FF4D0
S113139050AF26E72846FFF7F7FE024600283FF441
S11313A048AF10F0F0017FF444AF30460B46FFF72E
S11313B049FC00287FF43DAF13E7002103AC0D2264
S11313C00B4600943046FFF70FFA2846FFF7DCFE81
S11313D020F07F02022712F0FF0F0FD0039B00F0D2
S11313E07F0000FA07F0191828460391FFF7CCFE96
S11313F020F07F02073712F0FF0FEFD1009400F0C6
S11314007F04039804FA07F700F501730021DC193F
S113141030460D220B460394FFF704FAE1E6284612
S1131420FFF7B2FE00F00F014B1C00F0F0020121A7
S113143043EA023230460B46FFF704FC00287FF4EF
S1131440F8AECEE62846FFF79FFE00F00F02531CCD
S1131450032100F0F002EBE72846FFF795FE024671
S113146000283FF4E6AE10F0F0037FF4E2AE30461D
S11314700421FFF7E7FB00287FF4DBAEB1E604F0BC
S11314800F014B1C032143F4202230460B46FFF787
S1131490D9FB00287FF4CDAEA3E603AC41460E226F
S11314A0434600943046FFF79FF900943046414686
S11314B00F224346FFF7B6F94046BBE62846FFF73E
S11314C063FE00F0F00200F00F001032431C42E70C
S11314D010B5C36C84B003225C688DF80C20DA79F3
S11314E024020833084601A9019402938DF80D20C3
S11314F0FFF770FE04B010BD08B5FFF769FE806CFD
S113150008BD00BF08B5FFF763FEC36CDA7903EBCF
S11315108200083008BD00BF08B506F061F900BFBD
S113152008B506F05DF900BF80B584B000AF7860FF
S113153048F24003C1F6FF73FB60FB687A689A6067
S1131540FB684FF001021A7148F28003C1F6FF7381
S1131550FA685A644FF0000000F02CF80246FB6869
S11315601A60FB681B68002B09D148F28003C1F69E
S1131570FF734FF000025A644FF0000300E0FB6871
S1131580184607F11007BD4680BD00BF80B584B082
S113159000AF786048F28003C1F6FF735B6CFB60B8
S11315A0FB689B68184605F09FF807F11007BD46D5
S11315B080BD00BF80B485B000AF786048F280037E
S11315C0C1F6FF731B6C002B40F0A88048F24C035B
S11315D0C1F6FF73FB60FB687A689A60FB684FF0A2
S11315E001021A7148F25803C1F6FF73FA681A60CF
S11315F04FF4E043C4F204034FF4E042C4F20402A3
S113160002F5815202F11C02126842F0807203F565
S1131610815303F11C031A604FF40043C4F2030323
S11316204FF004025A654FF40043C4F203034FF031
S113163000021A604FF40043C4F203034FF00002A7
S1131640DA644FF40043C4F203034FF000025A601B
S11316504FF40043C4F203034FF00002DA604FF486
S11316600043C4F203034FF000025A614FF40043F5
S1131670C4F203034FF00002DA614FF40043C4F2F2
S113168003034FF000025A624FF40043C4F2030311
S11316904FF00002DA624FF40043C4F203034FF048
S11316A000025A634FF40043C4F203034FF00002F4
S11316B0DA634FF40043C4F203034FF000025A64A8
S11316C04FF40043C4F2030348F69B429A60FB685C
S11316D04FF480721A604FF46143CEF200034FF06E
S11316E0800283F83E234FF46143CEF200034FF4AB
S11316F06142CEF20002526842F080425A604FF4D6
S11317000043C4F203034FF048021A6048F2800316
S1131710C1F6FF73FA681A64FB6810E048F28003AC
S1131720C1F6FF731B6CFB60FB687A689A60FB6808
S11317301B7903F10103DAB2FB681A71FB681846DE
S113174007F11407BD4680BC704700BF684620F00F
S113175007018D4681B583B000AF48F25803C1F646
S1131760FF731B683B604FF000037B604FF4004342
S1131770C4F203031B6803F08003002B0CBF002397
S11317800123DBB2002B03D07B6843F480737B60BE
S11317903B681B687A6813407B607B6803F4807342
S11317A0002B10D04FF40043C4F203034FF4004263
S11317B0C4F20302126822F080021A603B689B683C
S11317C01846FFF7E3FE07F10C07BD46BDE881406C
S11317D08546704780B485B000AF786048F25C03FA
S11317E0C1F6FF73FB60FB687A68DA6148F27C0338
S11317F0C1F6FF73FA681A60FA684FF00003C8F282
S113180008031360FB684FF000025A60FB684FF056
S113181000021A81FB684FF000021A82FB684FF045
S11318200002DA60FB684FF000025A82FB684FF056
S113183000021A83FB684FF000025A614FF4E04340
S1131840C4F204034FF4E042C4F2040202F58152EC
S113185002F11C02126842F4805203F5815303F131
S11318601C031A604FF46143CEF200034FF0800270
S113187083F81A234FF46143CEF200034FF461421C
S1131880CEF20002126842F080621A604FF44043C4
S1131890C4F204034FF44042C4F20402D26822F0BA
S11318A0807222F4E06242F40072DA604FF4404342
S11318B0C4F204034FF44042C4F20402926822F0DA
S11318C0807222F4E06242F400729A604FF4404362
S11318D0C4F204034FF44042C4F20402526822F0FA
S11318E0807222F4E06242F400725A604FF4404382
S11318F0C4F204034FF44042C4F20402926922F099
S1131900807222F4E06242F400729A614FF4404320
S1131910C4F202034FF00102C0F208121A604FF43D
S11319204043C4F2020343F60142C8F208121A60AB
S11319304FF44043C4F202034FF00102CBF602021B
S1131940DA604FF44043C4F202034FF00002C9F6D8
S11319502A22DA624FF44043C4F202034FF4003205
S11319601A634FF44043C4F202034FF44042C4F2FA
S11319700202126822F001021A6048F28003C1F6E2
S1131980FF73FA689A65FB68184607F11407BD46A9
S113199080BC704780B487B000AFF860B96013466C
S11319A0FB80FB681B8A002B02D04FF008034AE03F
S11319B0EFF3138071B6F87548F25513C1F6FF734F
S11319C01B78DBB203F10103DBB21A4648F255136C
S11319D0C1F6FF7311461970012A14BF00230123B5
S11319E0DBB2002B05D0FA7D48F25413C1F6FF7325
S11319F01A70FB68BA68DA60FB68FA881A82FB68B6
S1131A004FF000021A8148F25513C1F6FF731B7898
S1131A10DBB203F1FF33DBB21A4648F25513C1F6C9
S1131A20FF7311461970002A14BF00230123DBB28F
S1131A30002B06D048F25413C1F6FF73187880F3D4
S1131A4013884FF00003184607F11C07BD4680BCFD
S1131A50704700BF80B487B000AFF860B960134628
S1131A60FB80FB681B8B002B02D04FF0080356E071
S1131A70EFF3138071B6F87548F25513C1F6FF738E
S1131A801B78DBB203F10103DBB21A4648F25513AB
S1131A90C1F6FF7311461970012A14BF00230123F4
S1131AA0DBB2002B05D0FA7D48F25413C1F6FF7364
S1131AB01A70FB68BA685A61FB68FA881A83FB6873
S1131AC04FF000025A824FF44043C4F202034FF431
S1131AD04042C4F20202126B42F000721A6348F2EE
S1131AE05513C1F6FF731B78DBB203F1FF33DBB28E
S1131AF01A4648F25513C1F6FF7311461970002AAD
S1131B0014BF00230123DBB2002B06D048F2541388
S1131B10C1F6FF73187880F313884FF0000318465A
S1131B2007F11C07BD4680BC704700BF684620F023
S1131B3007018D4681B585B000AF48F27C03C1F63C
S1131B40FF731B68BB604FF44043C4F20203DA6ABC
S1131B504FF00003C9F60A2313407B607B6803F44B
S1131B600023002B06D04FF44043C4F202034FF489
S1131B700022DA627B6803F40033002B2FD04FF489
S1131B804043C4F202039B6B7B804FF44043C4F296
S1131B9002034FF40032DA62BB681B8A002B1ED0AA
S1131BA0BB68DB687A88D2B21A7003F10102BB68A1
S1131BB0DA60BB681B8903F101039AB2BB681A811E
S1131BC0BB681A89BB681B8A9A4208D1BB684FF06C
S1131BD000021A82BB68DB69184604F0A3FD7B6827
S1131BE003F00073002B4BD0BB685A8ABB681B8B75
S1131BF09A4232D2BB685B8A03F101039AB2BB6892
S1131C005A82BB685B691A781146BA6812680A433B
S1131C10FA6003F10102BB685A61BB685A8ABB6867
S1131C201B8B9A4203D1FB6823F00043FB604FF403
S1131C304043C4F20203FA685A63BB685A8ABB6819
S1131C401B8B9A4215D1BB684FF000021A83BB6804
S1131C50DB69184604F05CFD0BE04FF44043C4F22A
S1131C6002034FF44042C4F20202126B22F00072EB
S1131C701A634FF44043C4F202034FF00072DA6275
S1131C8007F11407BD46BDE881408546704700BF93
S1131C90684620F007018D4681B583B000AF48F255
S1131CA0E403C1F6FF731B687B604FF43043C4F256
S1131CB004034FF43042C4F20402126A42F0807208
S1131CC01A627B681B68184604F036FD07F10C079E
S1131CD0BD46BDE881408546704700BF80B485B0ED
S1131CE000AF786048F2E803C1F6FF73FB60FB685D
S1131CF07A681A604FF2C003C4F20F034FF2C002B5
S1131D00C4F20F02526942F080025A614FF2C003DA
S1131D10C4F20F034FF2C002C4F20F02126842F081
S1131D2080021A604FF44043C4F204034FF440426B
S1131D30C4F20402D26922F0807222F4E06242F416
S1131D408072DA6148F28003C1F6FF73FA68DA65DB
S1131D50FB68184607F11407BD4680BC704700BFF6
S1131D6080B483B000AF78600B46FB70FB78002B27
S1131D7007D04FF2C003C4F20F034FF080025A6041
S1131D8006E04FF2C003C4F20F034FF080029A60E2
S1131D9007F10C07BD4680BC704700BF80B485B016
S1131DA000AF786048F2EC03C1F6FF73FB60FB6898
S1131DB07A681A604FF47043C4F20F034FF4704210
S1131DC0C4F20F02526942F020025A614FF4704388
S1131DD0C4F20F034FF47042C4F20F02126842F0CF
S1131DE020021A604FF41043C4F204034FF410426B
S1131DF0C4F20402526922F0807222F4E06242F4D6
S1131E0080725A6148F28003C1F6FF73FA68DA639C
S1131E10FB68184607F11407BD4680BC704700BF35
S1131E2080B483B000AF78600B46FB70FB78002B66
S1131E3007D04FF47043C4F20F034FF020025A60EE
S1131E4006E04FF47043C4F20F034FF020029A608F
S1131E5007F10C07BD4680BC704700BF80B485B055
S1131E6000AF786048F2F003C1F6FF73FB60FB68D3
S1131E707A681A604FF28003C4F20F034FF28002B3
S1131E80C4F20F02526942F400625A614FF28003B5
S1131E90C4F20F034FF28002C4F20F02126842F43C
S1131EA000621A604FF43043C4F204034FF430422A
S1131EB0C4F20402D26A22F0807222F4E06242F494
S1131EC08072DA6248F28003C1F6FF73FA689A639B
S1131ED0FB68184607F11407BD4680BC704700BF75
S1131EE080B483B000AF78600B46FB70FB78002BA6
S1131EF007D04FF28003C4F20F034FF400625A601C
S1131F0006E04FF28003C4F20F034FF400629A60BC
S1131F1007F10C07BD4680BC704700BF80B485B094
S1131F2000AF786048F2F403C1F6FF73FB60FB680E
S1131F307A681A604FF2C003C4F20F034FF2C00272
S1131F40C4F20F02526942F010025A614FF2C00308
S1131F50C4F20F034FF2C002C4F20F02126822F05F
S1131F6010021A604FF44043C4F204034FF4404299
S1131F70C4F20402126922F0807222F4E06242F494
S1131F8080721A6148F28003C1F6FF73FA681A631B
S1131F90FB68184607F11407BD4680BC704700BFB4
S1131FA080B483B000AF78600B46FB70FB78002BE5
S1131FB007D04FF2C003C4F20F034FF010025A606F
S1131FC006E04FF2C003C4F20F034FF010029A6010
S1131FD007F10C07BD4680BC704700BF80B485B0D4
S1131FE000AF786048F2F803C1F6FF73FB60FB684A
S1131FF07A681A604FF2C003C4F20F034FF2C002B2
S1132000C4F20F02526942F020025A614FF2C00337
S1132010C4F20F034FF2C002C4F20F02126822F09E
S113202020021A604FF44043C4F204034FF44042C8
S1132030C4F20402526922F0807222F4E06242F493
S113204080725A6148F28003C1F6FF73FA685A63DA
S1132050FB68184607F11407BD4680BC704700BFF3
S113206080B483B000AF78600B46FB70FB78002B24
S113207007D04FF2C003C4F20F034FF020025A609E
S113208006E04FF2C003C4F20F034FF020029A603F
S113209007F10C07BD4680BC704700BF80B485B013
S11320A000AF786048F2FC03C1F6FF73FB60FB6885
S11320B07A681A604FF28003C4F20F034FF2800271
S11320C0C4F20F02526942F004025A614FF28003D3
S11320D0C4F20F034FF28002C4F20F02126822F01E
S11320E004021A604FF43043C4F204034FF4304244
S11320F0C4F20402926822F0807222F4E06242F494
S113210080729A6048F28003C1F6FF73FA689A619C
S1132110FB68184607F11407BD4680BC704700BF32
S113212080B485B000AF786048F20013C1F6FF7345
S1132130FB60FB687A681A604FF24003C4F20F0335
S11321404FF24002C4F20F02526942F002025A6195
S11321504FF24003C4F20F034FF24002C4F20F02E5
S1132160126822F002021A604FF42043C4F20403FE
S11321704FF42042C4F20402526822F0807222F426
S1132180E06242F480725A6048F28003C1F6FF7341
S1132190FA68DA61FB68184607F11407BD4680BC8B
S11321A0704700BF80B485B000AF786048F2041374
S11321B0C1F6FF73FB60FB687A681A604FF2400354
S11321C0C4F20F034FF24002C4F20F02526942F00C
S11321D001025A614FF24003C4F20F034FF240026E
S11321E0C4F20F02126822F001021A604FF4204375
S11321F0C4F204034FF42042C4F20402126822F031
S1132200807222F4E06242F480721A6048F2800321
S1132210C1F6FF73FA681A62FB68184607F11407DF
S1132220BD4680BC704700BF80B485B000AF786005
S113223048F20813C1F6FF73FB60FB687A681A6002
S11322404FF47043C4F20F034FF47042C4F20F0210
S1132250526942F400525A614FF47043C4F20F03BE
S11322604FF47042C4F20F02126822F400521A6052
S11322704FF41043C4F204034FF41042C4F20402B6
S1132280526B22F0807222F4E06242F480725A634C
S113229048F28003C1F6FF73FA68DA60FB681846F7
S11322A007F11407BD4680BC704700BF80B485B0F9
S11322B000AF786048F20C13C1F6FF73FB60FB6853
S11322C07A681A604FF47043C4F20F034FF47042FB
S11322D0C4F20F02526942F480525A614FF47043BF
S11322E0C4F20F034FF47042C4F20F02126822F4D6
S11322F080521A604FF41043C4F204034FF41042A6
S1132300C4F20402126B22F0807222F4E06242F4FE
S113231080721A6348F28003C1F6FF73FA681A6187
S1132320FB68184607F11407BD4680BC704700BF20
S113233080B485B000AF786048F21013C1F6FF7323
S1132340FB60FB687A681A604FF47043C4F20F03B1
S11323504FF47042C4F20F02526942F010025A6103
S11323604FF47043C4F20F034FF47042C4F20F02EF
S1132370126822F010021A604FF41043C4F20403EE
S11323804FF41042C4F20402126922F0807222F463
S1132390E06242F480721A6148F28003C1F6FF736E
S11323A0FA685A61FB68184607F11407BD4680BCF9
S11323B0704700BF80B485B000AF786048F2141352
S11323C0C1F6FF73FB60FB687A681A604FF47143CF
S11323D0C4F20F034FF47142C4F20F02526942F087
S11323E002025A614FF47143C4F20F034FF4714275
S11323F0C4F20F02126822F002021A604FF4504332
S1132400C4F204034FF45042C4F20402526822F0AE
S1132410807222F4E06242F480725A6048F28003CF
S1132420C1F6FF73FA681A60FB68184607F11407CF
S1132430BD4680BC704700BF80B485B000AF7860F3
S113244048F21813C1F6FF73FB60FB687A681A60E0
S11324504FF47143C4F20F034FF47142C4F20F02FC
S1132460526942F001025A614FF47143C4F20F03FE
S11324704FF47142C4F20F02126822F001021A6092
S11324804FF45043C4F204034FF45042C4F2040224
S1132490126822F0807222F4E06242F480721A60C0
S11324A048F28003C1F6FF73FA685A60FB68184665
S11324B007F11407BD4680BC704700BF80B485B0E7
S11324C000AF786048F21C13C1F6FF73FB60FB6831
S11324D07A681A604FF28003C4F20F034FF280024D
S11324E0C4F20F02526942F080025A614FF2800333
S11324F0C4F20F034FF28002C4F20F02126822F0FA
S113250080021A604FF43043C4F204034FF43042A3
S1132510C4F20402D26922F0807222F4E06242F42E
S11325208072DA6148F28003C1F6FF73FA685A6276
S1132530FB68184607F11407BD4680BC704700BF0E
S113254080B485B000AF786048F22013C1F6FF7301
S1132550FB60FB687A681A604FF28003C4F20F03D1
S11325604FF28002C4F20F02526942F040025A61F3
S11325704FF28003C4F20F034FF28002C4F20F0241
S1132580126822F040021A604FF43043C4F204038C
S11325904FF43042C4F20402926922F0807222F4B1
S11325A0E06242F480729A6148F28003C1F6FF73DC
S11325B0FA689A62FB68184607F11407BD4680BCA6
S11325C0704700BF80B485B000AF786048F2241330
S11325D0C1F6FF73FB60FB687A681A604FF28003F0
S11325E0C4F20F034FF28002C4F20F02526942F0A8
S11325F020025A614FF28003C4F20F034FF28002AB
S1132600C4F20F02126822F020021A604FF4304321
S1132610C4F204034FF43042C4F20402526922F0BB
S1132620807222F4E06242F480725A6148F28003BC
S1132630C1F6FF73FA68DA62FB68184607F11407FB
S1132640BD4680BC704700BF80B485B000AF7860E1
S113265048F22813C1F6FF73FB60FB687A681A60BE
S11326604FF2C003C4F20F034FF2C002C4F20F02D0
S1132670526942F001025A614FF2C003C4F20F03DF
S11326804FF2C002C4F20F02126822F001021A6073
S11326904FF44043C4F204034FF44042C4F2040232
S11326A0126822F0807222F4E06242F480721A60AE
S11326B048F28003C1F6FF73FA689A60FB68184613
S11326C007F11407BD4680BC704700BF80B485B0D5
S11326D000AF786048F22C13C1F6FF73FB60FB680F
S11326E07A681A604FF28003C4F20F034FF280023B
S11326F0C4F20F02526922F400725A614FF430435B
S1132700C4F204034FF43042C4F20402526A22F0C9
S1132710807222F4E06242F480725A6248F28003CA
S1132720C1F6FF73FA685A65FB68184607F1140787
S1132730BD4680BC704700BF80B485B000AF7860F0
S113274048F23013C1F6FF73FB60FB687A681A60C5
S11327504FF28003C4F20F034FF28002C4F20F025F
S1132760526942F480625A614FF28003C4F20F034B
S11327704FF28002C4F20F02126822F480621A60DF
S11327804FF43043C4F204034FF43042C4F2040261
S1132790926A22F0807222F4E06242F480729A62B9
S11327A048F28003C1F6FF73FA68DA64FB681846DE
S11327B007F11407BD4680BC704700BF80B485B0E4
S11327C000AF786048F23413C1F6FF73FB60FB6816
S11327D07A681A604FF28003C4F20F034FF280024A
S11327E0C4F20F02526942F010025A614FF28003A0
S11327F0C4F20F034FF28002C4F20F02126842F0D7
S113280010021A604FF43043C4F204034FF4304210
S1132810C4F20402126922F0807222F4E06242F4EB
S113282080721A6148F28003C1F6FF73FA681A6570
S1132830FB68184607F11407BD4680BC704700BF0B
S1132840684620F007018D4691B582B000AF48F28A
S11328505013C1F6FF731B687B604FF4C043C4F28E
S11328600603DB78DCB24FF4C043C4F206034FF432
S1132870C042C4F20602D278D2B2D2B222F012021C
S1132880D1B2E2B20A43D2B2D2B2DA704FF4C04348
S1132890C4F206039B78DBB203F02003002B0CBFC9
S11328A000230123DBB2002B00F05F814FF4C0430F
S11328B0C4F206039B78DBB203F01003002B0CBFB9
S11328C000230123DBB2002B00F0F280234603F047
S11328D00103002B32D04FF4C043C4F206034FF47B
S11328E0C042C4F206029278D2B222F02002D2B2DE
S11328F09A704FF4C043C4F206034FF4C042C4F2CA
S113290006029278D2B222F01002D2B29A707B6898
S11329104FF000029A817B684FF000029A807B6836
S11329201B7823F00103DAB27B681A707B681B788A
S113293043F00603DAB27B681A703CE17B681B78CB
S113294003F00203002B00F0A4807B689B89002B1A
S113295013D07B689B8903F1FF339AB27B689A8119
S11329604FF4C043C4F206037A68126911781971EE
S113297002F101027B681A611DE17B689B88002BD0
S11329805AD07B681B7803F00403002B34D07B6897
S11329909B88012B0ED14FF4C043C4F206034FF4BD
S11329A0C042C4F206029278D2B242F00802D2B215
S11329B09A700DE04FF4C043C4F206034FF4C042D2
S11329C0C4F206029278D2B222F00802D2B29A700D
S11329D04FF4C043C4F206034FF4C042C4F20602EB
S11329E09278D2B222F01002D2B29A704FF4C0435D
S11329F0C4F206031B79DEE04FF4C043C4F20603BD
S1132A004FF4C042C4F206029278D2B242F00402F9
S1132A10D2B29A704FF4C043C4F206037A68D278F3
S1132A2042F00102D2B21A717B681B7843F00403AE
S1132A30DAB27B681A70BEE07B681B7823F001036E
S1132A40DAB27B681A707B685B78012B1BD14FF478
S1132A50C043C4F206034FF4C042C4F206029278A3
S1132A60D2B222F02002D2B29A704FF4C043C4F220
S1132A7006034FF4C042C4F206029278D2B222F0A6
S1132A801002D2B29A707B685B69184603F018FE94
S1132A9091E04FF4C043C4F206037A6892781A7145
S1132AA07B681B7843F00203DAB27B681A7082E019
S1132AB07B689B8803F1FF339AB27B689A807B68BA
S1132AC09B88002B12D07B689B88012B31D14FF45B
S1132AD0C043C4F206034FF4C042C4F20602927823
S1132AE0D2B242F00802D2B29A7022E07B681B781C
S1132AF023F00103DAB27B681A704FF4C043C4F2C6
S1132B0006034FF4C042C4F206029278D2B222F015
S1132B102002D2B29A704FF4C043C4F206034FF4B9
S1132B20C042C4F206029278D2B222F00802D2B2B3
S1132B309A707B689A684FF4C043C4F206031B7909
S1132B40DBB2137002F101027B689A607B685B69F7
S1132B50184603F0D3FD7B689B88002B2BD17B6840
S1132B605B69184603F0B6FD25E0234603F0100325
S1132B70002B20D07B684FF000029A817B684FF0D5
S1132B8000029A807B684FF001025A707B681B78C0
S1132B9023F00103DAB27B681A704FF4C043C4F225
S1132BA006034FF4C042C4F206029278D2B222F075
S1132BB01002D2B29A7007F10807BD46BDE89140F1
S1132BC08546704780B485B000AF786048F238130A
S1132BD0C1F6FF73FB60FB687A685A6148F25013D0
S1132BE0C1F6FF73FA681A60FB684FF020021A708E
S1132BF0FB684FF0C2029A70FB684FF001025A70F2
S1132C00FB684FF000029A80FB684FF000029A8143
S1132C104FF4E043C4F204034FF4E042C4F204026C
S1132C2002F5815202F11402126842F0400203F5E7
S1132C30815303F114031A604FF4C043C4F2060332
S1132C404FF000029A704FF4C043C4F206034FF0F1
S1132C500202DA704FF42043C4F204034FF420421A
S1132C60C4F20402D26822F0807222F4E06242F4D8
S1132C700072DA604FF42043C4F204034FF420429C
S1132C80C4F20402D26822F0807222F0200242F0E0
S1132C902002DA604FF42043C4F204034FF42042CC
S1132CA0C4F20402926822F0807222F4E06242F4D8
S1132CB000729A604FF42043C4F204034FF420429C
S1132CC0C4F20402926822F0807222F0200242F0E0
S1132CD020029A604FF46143CEF200034FF0800269
S1132CE083F818234FF46143CEF200034FF461429A
S1132CF0CEF20002126842F080721A604FF4C043B0
S1132D00C4F206034FF000025A714FF4C043C4F2F8
S1132D1006034FF000029A714FF4C043C4F2060355
S1132D204FF008021A724FF4C043C4F206034FF086
S1132D3026025A704FF4C043C4F206034FF4C04253
S1132D40C4F206029278D2B262F07F02D2B29A70D2
S1132D504FF4C043C4F206034FF4C042C4F2060267
S1132D609278D2B242F04002D2B29A7048F2800312
S1132D70C1F6FF73FA689A64FB68184607F11407F2
S1132D80BD4680BC704700BF80B487B000AFF86018
S1132D90B960FA807B71FB687B61FB88002B02D1F0
S1132DA04FF00003F7E07B695B78012B1DD14FF4F2
S1132DB0C043C4F20603DB78DBB203F02003002B2C
S1132DC009D17B691B7803F00103002B03D17B69D4
S1132DD09B89002B02D04FF0010301E04FF0000368
S1132DE0002B0FD04FF00803D5E07B691B7803F06C
S1132DF00103002B03D17B699B89002B02D04FF088
S1132E000803C8E0EFF3138071B6F87448F2551361
S1132E10C1F6FF731B78DBB203F10103DBB21A4680
S1132E2048F25513C1F6FF7311461970012A14BFF5
S1132E3000230123DBB2002B05D0FA7C48F25413A3
S1132E40C1F6FF731A707B691B7843F00103DAB291
S1132E507B691A707B69BA681A617B69FA889A81FE
S1132E607B697A795A704FF4C043C4F206034FF475
S1132E70C042C4F206029278D2B242F01002D2B238
S1132E809A704FF4C043C4F206039B78DBB203F09C
S1132E902003002B0CBF00230123DBB2002B0ED038
S1132EA04FF4C043C4F206034FF4C042C4F2060216
S1132EB09278D2B242F00402D2B29A700DE04FF48A
S1132EC0C043C4F206034FF4C042C4F2060292782F
S1132ED0D2B242F02002D2B29A707B691B7803F01E
S1132EE02003002B0ED07B691B7843F00603DAB273
S1132EF07B691A704FF4C043C4F206037A6992786E
S1132F001A7128E07B691B7803F01003002B0ED0A4
S1132F107B691B7823F00603DAB27B691A704FF4DD
S1132F20C043C4F206037A69D2781A7113E07B694C
S1132F301B7803F00803002B0DD07B691B7843F04A
S1132F400203DAB27B691A704FF4C043C4F2060379
S1132F504FF000021A7148F25513C1F6FF731B7843
S1132F60DBB203F1FF33DBB21A4648F25513C1F664
S1132F70FF7311461970002A14BF00230123DBB22A
S1132F80002B06D048F25413C1F6FF73187880F36F
S1132F9013884FF00003184607F11C07BD4680BC98
S1132FA0704700BF80B487B000AFF860B960FA80A2
S1132FB07B71FB687B61FB88002B02D14FF000031F
S1132FC0F4E07B79002B02D14FF08103EEE07B69C2
S1132FD01B7803F00803002B02D04FF00903E5E04F
S1132FE07B695B78012B1DD14FF4C043C4F2060307
S1132FF0DB78DBB203F02003002B09D17B691B785B
S113300003F00103002B03D17B699B88002B02D0C2
S11330104FF0010301E04FF00003002B0FD04FF0FD
S11330200803C3E07B691B7803F00103002B03D181
S11330307B699B88002B02D04FF00803B6E0EFF3C6
S1133040138071B6F87448F25513C1F6FF731B78F8
S1133050DBB203F10103DBB21A4648F25513C1F6A1
S1133060FF7311461970012A14BF00230123DBB238
S1133070002B05D0FA7C48F25413C1F6FF731A7082
S11330807B691B7843F00103DAB27B691A707B69B0
S1133090BA689A607B69FA889A807B697A795A70EF
S11330A04FF4C043C4F206034FF4C042C4F2060214
S11330B09278D2B242F01002D2B29A704FF4C04366
S11330C0C4F206039B78DBB203F02003002B0CBF91
S11330D000230123DBB2002B0ED04FF4C043C4F213
S11330E006034FF4C042C4F206029278D2B242F010
S11330F00402D2B29A700DE04FF4C043C4F2060346
S11331004FF4C042C4F206029278D2B242F02002D6
S1133110D2B29A707B691B7803F02003002B11D084
S11331207B691B7843F00603DAB27B691A704FF4AB
S1133130C043C4F206037A69927842F00102D2B223
S11331401A7113E07B691B7803F01003002B0DD078
S11331507B691B7823F00603DAB27B691A704FF49B
S1133160C043C4F206037A69D2781A7148F255133F
S1133170C1F6FF731B78DBB203F1FF33DBB21A46EF
S113318048F25513C1F6FF7311461970002A14BF93
S113319000230123DBB2002B06D048F25413C1F6FE
S11331A0FF73187880F313884FF00003184607F173
S11331B01C07BD4680BC704780B485B000AF786002
S11331C013460A46FA703B807B68FB60FB681B78F9
S11331D003F00103002B02D04FF0080365E0FB78F5
S11331E0012B1FD0022B4CD0002B59D13B887F2BB5
S11331F002D94FF0890358E03B88DBB24FEA43031E
S1133200DAB2FB689A70FB681B7823F01803DAB211
S1133210FB681A70FB681B7843F02003DAB2FB6882
S11332201A7040E03A8840F2FF339A4202D94FF0D4
S113323089033AE03B88DAB2FB689A703B884FEA2C
S1133240E313DAB2FB68DA70FB68DB7803F0060399
S1133250DAB2FB68DA70FB68DB7863F00F03DAB28A
S1133260FB68DA70FB681B7823F02803DAB2FB688A
S11332701A70FB681B7843F01003DAB2FB681A700B
S113328011E0FB681B7823F03003DAB2FB681A7094
S1133290FB681B7843F00803DAB2FB681A7002E09B
S11332A04FF08D0301E04FF00003184607F11407B7
S11332B0BD4680BC704700BF684620F007018D46BC
S11332C089B500AF03F0F6F9BD46BDE889408546EF
S11332D0704700BF684620F007018D4681B400AFF7
S11332E0FFBEBD4681BC8546704700BF80B400AFB9
S11332F04FF0E02240F20003C0F20003C2F8083DA0
S11333004FF4E043C4F204034FF4E042C4F2040275
S113331002F5815202F11C02126842F0005203F5D8
S1133320815303F11C031A604FF45043C4F20303A6
S11333301B6903F48073002B14BF00230123DBB249
S1133340002B23D04FF45043C4F203034FF45042F4
S1133350C4F20302126922F470521A614FF450430A
S1133360C4F203034FF45042C4F20302126942F45C
S113337080721A614FF45043C4F203034FF4504275
S1133380C4F20302126922F400721A614FF400536A
S1133390C4F205034CF22052DA814FF40053C4F214
S11333A005034DF62812DA814FF40053C4F20503E5
S11333B04FF4E9721A804FF4E043C4F2040303F5B6
S11333C0825303F104034FF00002C0F203121A60A7
S11333D04FF4E043C4F204034FF4E042C4F20402A5
S11333E002F5815202F11802126842F4785203F590
S11333F0815303F118031A604FF45043C4F20703D6
S11334009B78DBB203F00803002B0CBF00230123DD
S1133410DBB2002B0DD04FF45043C4F207034FF43A
S11334205042C4F207029278D2B242F00802D2B2F9
S11334309A704FF4E043C4F2040303F5825303F19A
S113344004034FF081721A604FF4E043C4F20403A2
S11334504FF4E042C4F2040202F5805202F1040285
S1133460126822F4803203F5805303F104031A60D6
S11334704FF4E043C4F204034FF4E042C4F2040204
S1133480126822F4402242F400221A604FF41043DE
S1133490C4F204034FF41042C4F20402926C22F00A
S11334A0807222F4E0629A644FF48043C4F206030B
S11334B04FF006021A704FF48043C4F206034FF033
S11334C020025A704FF48043C4F206034FF4804242
S11334D0C4F20602D278D2B2D2B202F01F02D2B241
S11334E062F03F02D2B2D2B2DA704FF4A043C4F217
S11334F006034FF080021A704FF48043C4F20603AF
S11335004FF48042C4F20602127BD2B222F00102CE
S1133510D2B21A734FF48043C4F206034FF001028F
S11335201A714FF48043C4F206034FF48042C4F28C
S113353006021279D2B242F04002D2B21A714FF4AA
S11335408043C4F206034FF001025A714FF48043E2
S1133550C4F206039B79DBB203F01003002B14BF03
S113356000230123DBB2002BF0D14FF48043C4F2DB
S113357006039B79DBB203F00C03002B0CBF002382
S11335800123DBB2002BF0D1BD4680BC704700BFE5
S113359080B483B000AF78607B6883F3118807F14F
S11335A00C07BD4680BC704780B500AF4FF4704334
S11335B0C4F207034FF47042C4F207025279D2B244
S11335C022F01F02D2B25A714FF47043C4F20703BF
S11335D04FF47042C4F207021279D2B222F0070209
S11335E0D2B21A714FF45043C4F207034FF450425D
S11335F0C4F207021278D2B2D2B222F07302D2B26B
S113360042F05002D2B2D2B21A704FF45043C4F214
S113361007034FF45042C4F207025278D2B2D2B236
S113362022F06302D2B242F04002D2B2D2B25A7055
S11336304FF45043C4F207034FF45042C4F207025C
S11336409278D2B222F01902D2B29A704FF4604347
S1133650C4F207034FF000021A704FF46143CEF234
S113366000034FF0000283F814234FF28003C4F2E6
S11336700F034FF28002C4F20F02526922F48072E7
S11336805A614FF00000FEF795FE4FF00000FEF780
S1133690D3FE4FF00000FEF7D7FF4FF00000FEF717
S11336A0C3FD4FF00000FEF701FE4FF00000FEF7EF
S11336B03FFE4FF00000FEF7F1FC4FF00000FEF774
S11336C02FFD4FF00000FEF76DFD4FF00000FEF7F8
S11336D0F5FE4FF00000FEF733FF4FF00000FEF759
S11336E071FF4FF00000FEF719FC4FF00000FEF7E9
S11336F075FC4FF00000FEF7B1FB4FF00000FEF741
S11337004DFB4FF00000FDF70FFF4FF00000FFF7F7
S113371059FA4FF00000FFF70FF84FF00000FFF7E1
S11337204DF84FF00000FEF7D1FF4FF00000FEF718
S113373051F84FF00000FEF7D1FA4FF00000FFF708
S113374027FF80BD80B500AF48F60042C1F6FF7286
S113375048F24003C1F6FF73D31A48F24000C1F6A1
S1133760FF704FF000011A4604F00CF980BD00BF51
S113377003F038F8FFF7BAFDFFF7E4FF03F066F84B
S113378002F0E4FF03F03CF84FF0000048F2581157
S1133790C1F6FF7102F0C6FB0346184604F004F8B4
S11337A080B483B000AF7860FEE700BF80B483B01C
S11337B000AF02460B46FA71BB7107F10C07BD4618
S11337C080BC704780B582B000AF02460B46FA71E8
S11337D0BB71FB79012B12D8FB79002B11D048F275
S11337E08003C1F6FF73DA6DBB79002B0CBF002395
S11337F00123DBB210461946FEF7B2FA02E000BF1D
S113380000E000BF07F10807BD4680BD80B582B067
S113381000AF7860786802F0B5F807F10807BD4694
S113382080BD00BF80B400AF48F26433C1F6FF73BB
S11338301B681846BD4680BC704700BF80B582B087
S113384000AF7860396048F26433C1F6FF731B68D7
S1133850184604F091F804F07FF8034639687A6852
S11338608A1A93FBF2F102FB01F29A1A7B68D318CD
S1133870184607F10807BD4680BD00BF80B584B077
S113388000AFF8607B600B46FB721346BB72FA68AC
S1133890BB7A104619467A6801F088F8FB680A4A30
S11338A01A60FB684FF0000283F84020FB684FF079
S11338B00C025A77FB68FA7A9A77FB68184607F184
S11338C01007BD4680BD00BF9880000080B582B05F
S11338D000AF78607B689B691B6803F11C031B685D
S11338E07A68926910464FF0000198477B68184641
S11338F001F078F8034683F00103DBB2002B02D019
S11339004FF0000365E07B689B7F18464FF0000191
S1133910FFF74CFF7B689B7F18464FF00001FFF7D1
S113392051FF78684FF007014FF0700200F06CF817
S113393078684FF01C014FF03F0200F065F878689A
S11339404FF01D014FF0050200F05EF878684FF06B
S11339501D0100F043F80346052B0CBF002301238F
S1133960DBB2002B1ED07B6818464FF050014FF09D
S1133970730201F0B5F878684FF01D014FF00502AD
S113398000F042F878684FF01D0100F027F8034674
S1133990052B0CBF00230123DBB2002B02D04FF018
S11339A0000316E0786800F0C5F8786800F05AF86B
S11339B0786800F067F878684FF0020100F072F858
S11339C078684FF001014FF0030200F083F84FF0E4
S11339D00103184607F10807BD4680BD80B582B0D3
S11339E000AF78600B46FB707A68FB7803F01F0326
S11339F0DBB21046194601F043F80346184607F1B6
S1133A000807BD4680BD00BF80B582B000AF7860B6
S1133A1013460A46FA70BB707968FB7803F01F03FB
S1133A20DBB243F02003DBB2DAB2BB7808461146BE
S1133A301A4601F055F80346184607F10807BD4633
S1133A4080BD00BF80B582B000AF78607B68184647
S1133A504FF0FF0100F0EEFF0346184607F1080798
S1133A60BD4680BD80B582B000AF78607B681846E3
S1133A704FF0E10100F0DEFF0346184607F10807A6
S1133A80BD4680BD80B582B000AF78607B681846C3
S1133A904FF0E20100F0CEFF0346184607F1080795
S1133AA0BD4680BD80B582B000AF78600B46FB7028
S1133AB0FB7803F07F03DBB278684FF005011A4608
S1133AC0FFF7A2FF4FF00103184607F10807BD46B0
S1133AD080BD00BF80B584B000AF786013460A464D
S1133AE0FA70BB70BB784FEA4303DBB203F0060302
S1133AF0FB73FB78022B04D1FB7B43F02003FB73A5
S1133B0006E0FB78012B03D1FB7B43F00803FB7336
S1133B10FB7B43F00103FB73FB7B78684FF00601EA
S1133B201A46FFF771FF4FF00103184607F110071B
S1133B30BD4680BD80B582B000AF78607B681B79DC
S1133B40DBB2022B0CBF00230123DBB2002B12D00B
S1133B507B685B7F78684FF000011A46FFF754FFDB
S1133B607B689B7F18464FF00001FFF72BFE7B68B4
S1133B704FF002021A7107F10807BD4680BD00BF6D
S1133B8080B582B000AF78607B681B79DBB2012B13
S1133B900CBF00230123DBB2002B11D078684FF057
S1133BA000014FF00002FFF72FFF7B689B7F184650
S1133BB04FF00001FFF706FE7B684FF001021A7117
S1133BC0184607F10807BD4680BD00BF80B582B026
S1133BD000AF78607B681B79DBB2042B0CBF002339
S1133BE00123DBB2002B15D07B685B7F43F003031A
S1133BF0DBB278684FF000011A46FFF705FF7B68D7
S1133C009B7F18464FF00101FFF7DCFD7B684FF006
S1133C1004021A7107F10807BD4680BD80B582B061
S1133C2000AF78607B681B79DBB2032B0CBF0023E9
S1133C300123DBB2002B23D07B689B7F18464FF017
S1133C400001FFF7BFFD78684FF007014FF0300225
S1133C50FFF7DAFE7B685B7F43F00203DBB2786830
S1133C604FF000011A46FFF7CFFE7B689B7F184692
S1133C704FF00101FFF7A6FD7B684FF003021A71B4
S1133C8007F10807BD4680BD80B584B000AFF86079
S1133C90B9601346FB71FB791C2B02D94FF000036A
S1133CA036E0FB68DA7AFB6883F82020FB681A7B2D
S1133CB0FB6883F82120FB685A7BFB6883F8222089
S1133CC0FB689A7BFB6883F82320FB6803F12402DA
S1133CD0FB791046B9681A4603F099FEF968FB6847
S1133CE003F12002FB7903F10403DBB208464FF031
S1133CF0B00100F075FFF868FFF790FFFB689B8A3E
S1133D009BB203F101039AB2FB689A824FF001035C
S1133D10184607F11007BD4680BD00BF80B584B0CA
S1133D2000AF78607B681B79DBB2032B0CBF0023E8
S1133D300123DBB2002B02D04FF0000328E07868A7
S1133D40FFF780FE0346FB73FB7B03F03003002B7D
S1133D5014BF00230123DBB2002BF0D1FB7B03F063
S1133D601003002B02D07868FFF77CFE7868FFF719
S1133D70E1FE78684FF007014FF03002FFF744FE90
S1133D80FB7B03F02003002B0CBF00230123DBB2D9
S1133D90184607F11007BD4680BD00BF80B483B04C
S1133DA000AF78607B68DB7F032B38D97B6893F89E
S1133DB020207B68DA717B6893F821207B681A7273
S1133DC07B6893F822207B685A727B6893F82320DF
S1133DD07B689A727B689B79002B0BD17B68DB79BB
S1133DE0DAB27B685B799A4204D07B68DB79DBB218
S1133DF0FF2B02D14FF0010301E04FF00003002B31
S1133E000ED07B685B8A9BB203F101039AB27B6894
S1133E105A827B684FF0010283F8402000E000BF23
S1133E2007F10C07BD4680BC704700BF80B584B065
S1133E3000AF78607B6893F8403083F00103DBB215
S1133E40002B57D07B681B79DBB2032B14BF0023F4
S1133E500123DBB2002B02D04FF000034DE0786861
S1133E60FFF7B4FE78684FF01701FFF7B7FD03467C
S1133E7003F00103002B0CBF00230123DBB2002B52
S1133E8002D04FF0000338E07B6818464FF0600121
S1133E9000F0F6FD0346FB73FB7B202B0BD97868FF
S1133EA0FFF7F0FD786800F02DF87868FFF742FE20
S1133EB04FF0000321E078684FF007014FF0400213
S1133EC0FFF7A2FD79687B6803F12002FB7B0846BB
S1133ED04FF0610100F03AFE7B68FA7BDA7778688C
S1133EE0FFF75CFF7B6893F84030002B02D07868C2
S1133EF0FFF720FE7B6893F84030184607F110075F
S1133F00BD4680BD80B483B000AF78607B684FF05D
S1133F10000283F840207B684FF00002DA7707F153
S1133F200C07BD4680BC704780B584B000AFF86014
S1133F30B9607A60FB681B6803F104031B68F868C6
S1133F409847034683F00103DBB2002B02D04FF005
S1133F50000324E0BB68002B1CD07B68002B19D025
S1133F607B681B781A46FB68DB7FA3F104039A4243
S1133F7006DDFB68DB7FA3F10403DAB27B681A7009
S1133F80FB6803F124027B681B78B86811461A4663
S1133F9003F03DFDF868FFF7B5FF4FF00103184645
S1133FA007F11007BD4680BD80B483B000AF7860D0
S1133FB04FF01C03184607F10C07BD4680BC704740
S1133FC080B483B000AF786007F10C07BD4680BCB5
S1133FD0704700BF80B483B000AF786007F10C076E
S1133FE0BD4680BC704700BF80B584B000AFF860A8
S1133FF0B9601346FB71FB6803F10402FB791046B8
S1134000B9681A4600F04EFBFB68084A1A60FB6860
S11340104FF01E0283F81621F86800F0A3F9FB683C
S1134020184607F11007BD4680BD00BFF0800000B0
S113403080B584B000AF78607B6803F10403184650
S113404001F068FA0346FB73FB7B002B04D07B680A
S11340504FF01E0283F81621FB7B184607F1100768
S1134060BD4680BD80B584B000AF7860F970BA7089
S11340707B704FF00003FB7332E0FA7B79681346E0
S11340804FEA43039B18CB1803F58873DB79FA785E
S11340909A4221D1FA7B796813464FEA43039B186D
S11340A0CB1803F58873FA78DA71FA7B79681346CA
S11340B04FEA43039B18CB1803F58873BA781A7236
S11340C0FA7B796813464FEA43039B18CB1803F530
S11340D088737A785A7289E0FB7B03F10103FB73DE
S11340E0FB7B092B8CBF00230123DBB2002BC4D143
S11340F04FF00003FB7331E0FA7B796813464FEA13
S113410043039B18CB1803F588735B7A002B21D1EA
S1134110FA7B796813464FEA43039B18CB1803F5DF
S11341208873FA78DA71FA7B796813464FEA4303A5
S11341309B18CB1803F58873BA781A72FA7B7968DE
S113414013464FEA43039B18CB1803F588737A7818
S11341505A724BE0FB7B03F10103FB73FB7B092BDE
S11341608CBF00230123DBB2002BC5D1786800F09B
S1134170EBF84FF00003FB7330E0FA7B79681346E9
S11341804FEA43039B18CB1803F588735B7A002B23
S113419020D1FA7B796813464FEA43039B18CB1866
S11341A003F58873FA78DA71FA7B796813464FEA73
S11341B043039B18CB1803F58873BA781A72FA7BF9
S11341C0796813464FEA43039B18CB1803F58873A9
S11341D07A785A72FB7B03F10103FB73FB7B092B97
S11341E08CBF00230123DBB2002BC6D107F11007DB
S11341F0BD4680BD80B485B000AF78600B46FB70CF
S11342004FF00003FB7328E0FA7B796813464FEA0A
S113421043039B18CB1803F58873DB79FA789A4229
S113422017D1FA7B796813464FEA43039B18CB18DE
S113423003F588735B7A002B0BD0FA7B13464FEAA5
S113424043039B1803F588737A68D31803F10703B3
S11342500DE0FB7B03F10103FB73FB7B092B8CBF9C
S113426000230123DBB2002BCED14FF0000318460C
S113427007F11407BD4680BC704700BF80B582B00B
S113428000AF78600B46FB70FA7813464FEA43039D
S11342909B1803F588737A68D31803F10701FB7838
S11342A003F1010213464FEA43039B1803F5887395
S11342B07A68D31803F10702FB7818464FEA8303A0
S11342C0C31A03F11B03084611461A4603F09FFB69
S11342D07B684FF0000283F8342107F10807BD46DC
S11342E080BD00BF80B584B000AF78600B46FB7022
S11342F04FF00003FB7318E0FA7B796813464FEA2A
S113430043039B18CB1803F58873DB79FA789A4238
S113431007D1FB7B78681946FFF7B0FF4FF0010324
S11343200DE0FB7B03F10103FB73FB7B092B8CBFCB
S113433000230123DBB2002BDED14FF0000318462B
S113434007F11007BD4680BD80B582B000AF78602C
S113435078684FF00001FFF791FF07F10807BD46A9
S113436080BD00BF80B485B000AF78604FF000031B
S1134370FB730FE0FA7B796813464FEA43039B18FB
S1134380CB1803F588734FF000025A72FB7B03F1DC
S11343900103FB73FB7B092B8CBF00230123DBB2DE
S11343A0002BE7D107F11407BD4680BC704700BF5E
S11343B080B586B002AFF860B960FA71BB71FB6872
S11343C0197AFA79BB790091397E0191F868B96854
S11343D000F006F80346184607F11007BD4680BDF5
S11343E090B585B000AFF860B960FA71BB71FB7924
S11343F003F10504FB685B681B6803F110031B6889
S1134400FA6852681046984703469C4294BF0023BA
S11344100123DBB2002B02D04FF001033FE048F24E
S11344205C13C1F6FF7397F820205A7048F25C13AE
S1134430C1F6FF73BA791A7048F25C13C1F6FF73C0
S11344404FF000029A70FB6893F8152148F25C1350
S1134450C1F6FF731146D97002F10103DAB2FB68A9
S113446083F8152148F25C13C1F6FF7397F82420F2
S11344701A71FB790C48B9681A4603F0C8FAFB684C
S11344801B6803F104031B68FA7902F10502D2B236
S1134490F86848F25C11C1F6FF7198470346184664
S11344A007F11407BD4690BD6181FF1F80B586B03A
S11344B000AFF860B9601346FB714FF0FF03FB7562
S11344C0BB681B78FF2B0FD0BB681B78F8681946B4
S11344D0FFF790FE38613B69002B02D14FF00203D5
S11344E016E03B695B78FB75FB6803F10401FA791C
S11344F0FB7D0846B96800F0F9F8034683F0010330
S1134500DBB2002B02D04FF0050301E04FF00003B3
S1134510184607F11807BD4680BD00BF80B485B0BA
S113452000AFF860B9601346FB7107F11407BD468C
S113453080BC704780B58AB004AFF860B9607A6017
S11345403B604FF0FF03BB75FB6803F1040107F107
S1134550160207F1150307F11400009007F1130088
S1134560019007F112000290084648F25C11C1F66E
S1134570FF7100F089F90346002B00F08980FB6885
S11345801B681B68BA7DF86848F25C11C1F6FF71BC
S1134590984748F25C13C1F6FF731A78FB681B7ADC
S11345A09A4206D048F25C13C1F6FF731B78FF2BC6
S11345B03DD13B68002B06D048F25C13C1F6FF7373
S11345C05A783B681A703B6A002B06D048F25C1399
S11345D0C1F6FF731A783B6A1A707B6A002B06D007
S11345E048F25C13C1F6FF73DA787B6A1A70BB6A0F
S11345F0002B06D048F25C13C1F6FF731A79BB6A2C
S11346001A70BB7DA3F10503FB757B681B78FA7DEB
S11346109A4202D27B68FA7D1A707B681B78B8686C
S11346201F491A4603F0F3F94FF0010332E048F250
S11346305C13C1F6FF731B78FF2B19D048F25C138F
S1134640C1F6FF739B78FA6892F8162193422CBF47
S113465000220122D2B203F10103D9B248F25C1361
S1134660C1F6FF739970002A02D04FF0010301E0F4
S11346704FF00003002B0BD0FB681B6803F104030D
S11346801B68BA7DF86848F25C11C1F6FF7198475F
S11346904FF00003184607F11807BD4680BD00BF60
S11346A06181FF1F80B584B000AFF860B960134624
S11346B0FB71FA68FB791046B9681A4600F016FFD8
S11346C0FB684FF000029A60FB684FF000021A7317
S11346D0FB684FF0C802DA81FB684FF003021A74DA
S11346E0FB68184607F11007BD4680BDB0B58EB013
S11346F004AFF860B960FA71BB71FB681B7B03F10E
S11347000103DAB2FB681A73FB681B7B87F8263057
S11347104FF0000387F827309DE0FA6897F82630B9
S11347201046194601F004F8FB6818464FF00001E2
S11347304FF0800201F012F8F968FA79BB79084663
S1134740B96800F023FFFB68184600F099FFBB79B5
S1134750FF2B02D14FF0010391E097F82730012B92
S113476005D9FB689B6803F10102FB689A60FFF7B7
S113477059F83862FB68DC89FB68DB891D464FF019
S113478000004FF48071FFF759F8034603FB05F36B
S1134790002B01DA03F1FF034FEA23239BB2E31852
S11347A0FB8348E0FA68BB699BB21046194600F0E7
S11347B07BFF0346002B3ED0FA6807F1170307F18D
S11347C01601009107F11501019107F114010291FD
S11347D010464FF000014FF0000200F0F5FE0346D2
S11347E0002B28D0FB7DBA799A4211D1FB681A7943
S11347F0BB7D9A420CD13B7DDBB25BB2002B07DA66
S11348007B7D97F826209A4202D14FF0010336E0CF
S11348103B7DDBB25BB2002B0DDBFB7DFA68D3186A
S11348205A7C7B7D9A4206D17A7DFB7DF8681146DD
S11348301A4600F08FF8FC8BFEF7F4FF03463A6A41
S1134840D31AE318BB61BB69002BD4BF0023012337
S1134850DBB2002BA6D1FB681B7C97F827209A4279
S11348608CBF00230123DBB297F8272002F1010259
S113487087F82720002B7FF450AF4FF00003184631
S113488007F12807BD46B0BD80B58AB004AFF86013
S1134890B9607A603B60FB68184600F0DDFE0346B1
S11348A0002B16D0FA6807F1170307F116010091DF
S11348B007F11501019107F1140102911046B9683D
S11348C07A6800F081FE0346002B02D04FF001030A
S11348D001E04FF00003002B35D03B7DDBB25BB22F
S11348E0002B30DBBB7DFF2B06D07A7DFB7DF86887
S11348F011461A4600F02EF8FB7DFA68D3185A7C4C
S11349007B7D9A421FD03B68002B02D0FA7D3B6826
S11349101A703B6A002B02D0BA7D3B6A1A707B6A1C
S1134920002B02D07A7D7B6A1A70BB6A002B02D0FE
S11349303A7DBB6A1A70FB7D7A7DF968CB185A748C
S11349404FF0010301E04FF00003184607F1180788
S1134950BD4680BD80B584B000AF786013460A467A
S1134960FA70BB707A68FB781046194600F0E0FED6
S11349707B6818464FF080014FF0000200F0EEFE15
S11349804FF02103FB73796807F10F02BB780846E7
S113499011464FF0010200F0F9FD7B68184600F063
S11349A06FFE07F11007BD4680BD00BF80B584B01F
S11349B000AFF8600B467A60FB72FB68184600F0A3
S11349C025FCFB68064A1A60FB687A689A61FB68F2
S11349D0FA7A1A77FB68184607F11007BD4680BDBE
S11349E00081000080B582B000AF78607B689B696D
S11349F01B6803F10C031B687A6892691046984798
S1134A007B681B7F18464FF00001FEF7CFFE7B68E2
S1134A101B7F18464FF00101FEF7D4FE4FF06400EF
S1134A20FEF7F4FE4FF00103184607F10807BD46F0
S1134A3080BD00BF80B584B000AF78600B46FB70CA
S1134A407B681B7F18464FF00001FEF7BBFE7B68B6
S1134A509B691B681B687A689169FA780846114655
S1134A6098470346FB737B681B7F18464FF0010190
S1134A70FEF7A8FEFB7B184607F11007BD4680BD74
S1134A8080B584B000AF78600B46FB707B681B7FF9
S1134A9018464FF00001FEF795FE7B689B691B6882
S1134AA01B687A689169FA780846114698477B68CA
S1134AB09B691B681B687A68926910464FF0000175
S1134AC098470346FB737B681B7F18464FF0010130
S1134AD0FEF778FEFB7B184607F11007BD4680BD44
S1134AE080B584B000AF786013460A46FA70BB7094
S1134AF04FF00003FB737B681B7F18464FF00001E7
S1134B00FEF760FE7B689B691B681B687A68916985
S1134B10FA780846114698470346FB737B689B69FD
S1134B201B681B687A689169BA78084611469847E9
S1134B307B681B7F18464FF00101FEF743FEFB7BA9
S1134B40184607F11007BD4680BD00BF80B586B08A
S1134B5000AFF8607A600A46FA72BB724FF0000345
S1134B60FB75FB681B7F18464FF00001FEF72AFE19
S1134B70FB689B691B681B68FA689169FA7A0846A6
S1134B80114698470346FB7511E0FB689B691B6857
S1134B901B68FA68926910464FF000019847034673
S1134BA01A467B681A707B6803F101037B60BB7A49
S1134BB0002B0CBF00230123DBB2BA7A02F1FF32CF
S1134BC0BA72002BE1D1FB681B7F18464FF001013C
S1134BD0FEF7F8FDFB7D184607F11807BD4680BDBA
S1134BE080B586B000AFF8607A600A46FA72BB728C
S1134BF04FF00003FB75FB681B7F18464FF0000164
S1134C00FEF7E0FDFB689B691B681B68FA68916905
S1134C10FA7A0846114698470346FB750EE0FB688E
S1134C209B691B681B68FA6891697A6812787868CE
S1134C3000F101007860084611469847BB7A002BC2
S1134C400CBF00230123DBB2BA7A02F1FF32BA723D
S1134C50002BE4D1FB681B7F18464FF00101FEF7DF
S1134C60B1FDFB7D184607F11807BD4680BD00BFA6
S1134C7080B584B000AFF860B9601346FB71FA6880
S1134C80FB791046B9681A46FFF7AEF9FB68044A87
S1134C901A60FB68184607F11007BD4680BD00BFC7
S1134CA05881000080B588B002AFF860B960FA712D
S1134CB0BB71FB79F92B02D94FF0010348E0BB79B2
S1134CC0FF2B22D0FA68BB7910461946FFF792FAF7
S1134CD078617B69002B11D1FB681B6803F1080321
S1134CE01B68BA79F86811469847034683F00103B4
S1134CF0DBB2002B02D04FF0010301E04FF00003C0
S1134D00002B02D04FF0020322E048F25C23C1F6EC
S1134D10FF733B613B694FF000021A703B6903F17A
S1134D200102FB791046B9681A4602F070FEF96870
S1134D30FB7903F10103DAB2BB7997F82000009004
S1134D40084648F25C21C1F6FF71FFF731FB0346C8
S1134D50184607F11807BD4680BD00BF90B58DB059
S1134D6004AF78600B46FB7048F25C23C1F6FF7316
S1134D70FB61FB694FF001021A70FB694FF00102FD
S1134D805A70FB69FA789A707B684FF000020092BF
S1134D901846F9694FF003024FF0FF03FFF708FBD1
S1134DA00346FB76FB7E002B02D04FF0000357E056
S1134DB04FF0FA03FB73FEF735FD78613EE07B6844
S1134DC003F104023B699BB21046194600F06CFCE7
S1134DD00346002B32D07A6807F10F034FF000012D
S1134DE000914FF0000101914FF000010291104633
S1134DF048F25C21C1F6FF711A464FF00003FFF739
S1134E0099FB0346002B19D0FB7B012B16D9FB69B8
S1134E101B78022B12D17C687B6803F104031846CB
S1134E2000F0C8FC0346FA78204611461A464FF0B3
S1134E300203FFF717F94FF0010311E0FEF7F2FC4C
S1134E4003467A69D31A03F57A633B613B69002B05
S1134E50D4BF00230123DBB2002BB0D14FF00003F9
S1134E60184607F12407BD4690BD00BFB0B58AB00F
S1134E7000AFF860B9601346FB71BB6803F105032A
S1134E803B62FB79012B68D93B6A1B78022B64D106
S1134E90BB6803F10503FB61FD68FB699C78FB6853
S1134EA003F10403184600F085FC03462846214616
S1134EB01A464FF00203FFF7D5F8FB79A3F1080374
S1134EC0FB764FF0000387F827300EE097F8273081
S1134ED0FA69D318DA78FB681B7A9A4210D097F8EB
S1134EE0273003F1010387F8273097F82720FB7E4A
S1134EF09A422CBF00230123DBB2002BE6D100E051
S1134F0000BF97F8273003F1010387F8273013E037
S1134F10FD6897F82730FA69D318DC78FB6803F149
S1134F200403184600F046FC0346284621461A4668
S1134F304FF00203FFF796F897F82720FB7E9A427A
S1134F402CBF00230123DBB297F8272002F10102D2
S1134F5087F82720002BDBD111E0FB79012B0ED938
S1134F603B6A1B78032B0AD1BB6803F105037B6101
S1134F70FA687B695B7810461946FFF7B3F907F1C5
S1134F802807BD46B0BD00BF80B588B002AFF86049
S1134F90B9601346FB71FB6803F10403184600F083
S1134FA009FC0346BB75FA68FB791046B9681A46D2
S1134FB0FFF77CFA0346FB75FB7D022B02D0FB7DD9
S1134FC0052B32D1FA68BB681B7810461946FFF7E7
S1134FD089F9BB685A78FB681B7A9A4225D048F253
S1134FE05C23C1F6FF733B613B694FF003021A7007
S1134FF0BB681A783B695A70F968BB685A78BB7DFC
S1135000084611461A464FF00203FFF72BF8FA68D8
S1135010BB685B784FF000010091104639694FF08E
S11350200202FFF7C5F90346FB75FB7D184607F13D
S11350301807BD4680BD00BF80B485B000AFF860DE
S1135040B9601346FB71FB79012B08D1BB681A7850
S1135050FB681B7A9A4202D14FF0010301E04FF042
S11350600003184607F11407BD4680BC704700BF13
S113507080B582B000AF7860F970BA707B707868E0
S1135080F978BA787B7800F07BF87B68034A1A6079
S11350907B68184607F10807BD4680BD7081000093
S11350A080B582B000AF78600B46FB70FB7848F2A5
S11350B06030C1F6FF70194600F0CEFB0346184677
S11350C007F10807BD4680BD80B483B000AF7860A7
S11350D007F10C07BD4680BC704700BF80B483B0A5
S11350E000AF786007F10C07BD4680BC704700BF75
S11350F080B483B000AF786007F10C07BD4680BC74
S1135100704700BF80B582B000AF786048F260306D
S1135110C1F6FF7000F096FB07F10807BD4680BD9D
S113512080B582B000AF786039607B68012B18D1FC
S11351303A684FF6FF739A4213D148F25830C1F6D9
S1135140FF704FF000014FF000024FF00003FFF733
S11351508FFF48F26030C1F6FF704FF0010100F09C
S113516065FB07F10807BD4680BD00BF80B500AFF1
S11351704FF001004FF6FF71FFF7D2FF80BD00BF73
S113518080B483B000AF7860F970BA707B707B68CC
S1135190084A1A607B68FA781A717B68BA785A717F
S11351A07B687A789A717B68184607F10C07BD46CC
S11351B080BC70479881000080B483B000AF7860F1
S11351C00B46FB707B68FA785A7107F10C07BD46F1
S11351D080BC704780B483B000AF78600B46FB702E
S11351E07B68FA789A7107F10C07BD4680BC70475A
S11351F080B483B000AF78600B46FB707B68FA78AC
S11352001A7107F10C07BD4680BC704780B483B0A7
S113521000AF78607B68164A1A607B684FF0000222
S11352201A717B684FF0FF025A717B684FF0FF02DE
S1135230DA727B684FF0FF021A737B684FF000024A
S11352405A737B684FF000029A737B684FF0000238
S11352501A827B684FF000025A827B684FF000028A
S11352609A827B68184607F10C07BD4680BC7047DC
S1135270C081000080B483B000AF78604FF00103B8
S1135280184607F10C07BD4680BC704780B582B054
S113529000AF786000BF7B681B6803F104031B68E0
S11352A078689847034683F00103DBB2002BF2D100
S11352B007F10807BD4680BD80B584B000AF7860B3
S11352C00B467B80FEF7AEFAF8600CE07B681B6847
S11352D003F104031B68786898470346002B02D047
S11352E04FF001030EE0FEF79DFA0246FB68D21A66
S11352F07B889A422CBF00230123DBB2002BE5D12B
S11353004FF00003184607F11007BD4680BD00BFEB
S113531080B483B000AF78607B681B79DBB2032B69
S113532014BF00230123DBB2002BF5D14FF001039E
S1135330184607F10C07BD4680BC704780B584B0A1
S113534000AF78600B467B80FEF76CFAF8600CE0E7
S11353507B681B79DBB2032B0CBF00230123DBB278
S1135360002B02D04FF001030EE0FEF75BFA024679
S1135370FB68D21A7B889A422CBF00230123DBB23C
S1135380002BE5D14FF00003184607F11007BD4686
S113539080BD00BF80B483B000AF78600B46FB7063
S11353A07B68FA789A7107F10C07BD4680BC704798
S11353B080B483B000AF78600B46FB707B68FA78EA
S11353C05A7107F10C07BD4680BC704780B483B0A6
S11353D000AF78600B46FB707B68FA78DA7207F1ED
S11353E00C07BD4680BC704780B483B000AF7860C2
S11353F00B46FB707B68FA781A7307F10C07BD46FD
S113540080BC704780B483B000AF78600B46FB70FB
S11354107B68FA785A7307F10C07BD4680BC704765
S113542080B483B000AF786013460A46FA70BB704C
S11354307B689B7BDAB2BB786FEA0303DBB2DBB237
S11354401340DBB2DAB27B689A737B689A7BFB7891
S11354501343DAB27B689A7307F10C07BD4680BC2C
S1135460704700BF80B483B000AF78607B68DB799D
S1135470DBB2184607F10C07BD4680BC704700BF7D
S113548080B483B000AF78607B681B7ADBB21846C7
S113549007F10C07BD4680BC704700BF80B483B0E1
S11354A000AF78607B685B7ADBB2184607F10C07C3
S11354B0BD4680BC704700BF80B483B000AF786045
S11354C07B689B7ADBB2184607F10C07BD4680BCAB
S11354D0704700BF80B483B000AF78604FF0000322
S11354E0184607F10C07BD4680BC704780B485B0F0
S11354F000AFF860B9601346FB71FB68BA681A60C4
S1135500FB68FA791A71FB68184607F11407BD465F
S113551080BC704780B584B000AF78607B681B683E
S11355201B681B687A681268104698470346FB7329
S1135530FB7B002B05D07B681B797868194600F04B
S113554007F8FB7B184607F11007BD4680BD00BF76
S113555080B582B000AF78600B46FB707B681B6837
S11355601B6803F124031B687A681168FA780846FB
S113557011469847FB787868194600F0C3F87B68B1
S1135580FA781A7107F10807BD4680BD80B584B06A
S113559000AFF860B960FA71BB71BB79F86819465D
S11355A000F09AF8FB681B681B6803F10C031B6886
S11355B0FA681168FA790846B968984703461846A4
S11355C007F11007BD4680BD80B584B000AFF86018
S11355D0B9607A603B60FB681B681B6803F10803D1
S11355E01B68FA6812681046B9687A6898470346D7
S11355F0002B2AD03B68002B06D0F86800F0DAF8BC
S113560003461A463B681A70BB69002B06D0F8683B
S113561000F0BCF803461A46BB691A70FB69002BFC
S113562006D0F86800F0DAF803461A46FB691A70E7
S11356303B6A002B06D0F86800F0E4F803461A46EB
S11356403B6A1A704FF0010301E04FF00003184663
S113565007F11007BD4680BD80B582B000AF786009
S11356607B681B681B6803F104031B687A68126873
S1135670104698470346184607F10807BD4680BD03
S113568080B582B000AF78607B681B681B6803F14B
S113569018031B687A681268104698470346184630
S11356A007F10807BD4680BD80B582B000AF7860C1
S11356B00B467B807B681B681B6803F120031B6817
S11356C07A6811687A88084611469847034618464E
S11356D007F10807BD4680BD80B582B000AF786091
S11356E00B46FB707B681B681B6803F128031B686F
S11356F07A681168FA7808461146984707F108074E
S1135700BD4680BD80B582B000AF78600B46FB70AB
S11357107B681B681B6803F12C031B687A6811689B
S1135720FA7808461146984707F10807BD4680BD38
S113573080B582B000AF78600B46FB707B681B6855
S11357401B6803F130031B687A681168FA7808460D
S11357501146984707F10807BD4680BD80B582B061
S113576000AF786013460A46FA70BB707B681B680A
S11357701B6803F134031B687A681068F978BA78F7
S1135780984707F10807BD4680BD00BF80B582B0C9
S113579000AF78607B681B681B6803F13C031B68DF
S11357A07A681268104698470346184607F10807B6
S11357B0BD4680BD80B582B000AF78607B681B6851
S11357C01B6803F140031B687A6812681046984707
S11357D00346184607F10807BD4680BD80B582B070
S11357E000AF78607B681B681B6803F144031B6887
S11357F07A681268104698470346184607F1080766
S1135800BD4680BD80B582B000AF78607B681B6800
S11358101B6803F148031B687A68126810469847AE
S11358200346184607F10807BD4680BD80B483B01F
S113583000AF786039607B68184607F10C07BD46F5
S113584080BC704780B483B000AF786007F10C0768
S1135850BD4680BC704700BF80B582B000AF7860A1
S11358600B46FB7048F28003C1F6FF739A6DFB7818
S1135870104619464FF00102FCF7ECF848F2800399
S1135880C1F6FF739A6D07F10303104619464FF0F2
S11358900102FCF77FF8FB78184607F10807BD46BC
S11358A080BD00BF80B400AF48F26433C1F6FF731B
S11358B04FF000021A6048F26833C1F6FF734FF0EC
S11358C000021A7048F26933C1F6FF734FF0000208
S11358D01A7048F26A33C1F6FF734FF000021A706F
S11358E0BD4680BC704700BF80B400AF48F264334B
S11358F0C1F6FF731B6803F1010248F26433C1F679
S1135900FF731A6048F26833C1F6FF734FF0010267
S11359101A7048F26433C1F6FF731A6844F6D3531D
S1135920C1F26203A3FB02134FEA13134FF0FA010F
S113593001FB03F3D31A002B06D148F26933C1F6F5
S1135940FF734FF001021A7048F26433C1F6FF731B
S11359501A6844F6D353C1F26203A3FB02134FEA5D
S113596053134FF4FA7101FB03F3D31A002B06D13E
S113597048F26A33C1F6FF734FF001021A70BD4654
S113598080BC704780B485B000AF786048F264335F
S1135990C1F6FF731B68FB6048F26433C1F6FF7302
S11359A01A68FB68D21A7B689A422CBF0023012331
S11359B0DBB2002BF0D107F11407BD4680BC704761
S11359C080B500AF4FF0010000F056F94FF0000031
S11359D000F064F94FF0000000F072F94FF000009D
S11359E000F080F94FF037004FF001014FF0010251
S11359F000F0B8F94FF0020000F086F980BD00BF56
S1135A0080B584B002AF786048F26C33C1F6FF739E
S1135A104FF03B021A704FF06803009348F26C3069
S1135A20C1F6FF704FF0010148F28C32C1F6FF72EB
S1135A304FF0060300F0FCF848F28C33C1F6FF7314
S1135A401B784FEA03239AB248F28C33C1F6FF73F2
S1135A505B7813439AB27B681A8048F28C33C1F6A0
S1135A60FF739B784FEA03239AB248F28C33C1F652
S1135A70FF73DB7813439AB27B685A8048F28C3305
S1135A80C1F6FF731B794FEA03239AB248F28C33B1
S1135A90C1F6FF735B7913439AB27B689A8048F22C
S1135AA06C33C1F6FF734FF043021A704FF0680372
S1135AB0009348F26C30C1F6FF704FF0010148F2D8
S1135AC08C32C1F6FF724FF0060300F0B1F848F2D1
S1135AD08C33C1F6FF731B784FEA03239AB248F262
S1135AE08C33C1F6FF735B7813439AB27B68DA8018
S1135AF048F28C33C1F6FF739B784FEA03239AB2C2
S1135B0048F28C33C1F6FF73DB7813439AB27B6897
S1135B101A8148F28C33C1F6FF731B794FEA0323D1
S1135B209AB248F28C33C1F6FF735B7913439AB28D
S1135B307B685A8148F26C33C1F6FF734FF002025E
S1135B401A704FF00C03009348F26C30C1F6FF70EA
S1135B504FF0010148F28C32C1F6FF724FF0090395
S1135B6000F066F848F28C33C1F6FF739B784FEA75
S1135B7003239AB248F28C33C1F6FF735B78134364
S1135B809AB27B689A8148F28C33C1F6FF731B7911
S1135B904FEA03239AB248F28C33C1F6FF73DB78E1
S1135BA013439AB27B68DA8148F28C33C1F6FF73EF
S1135BB09B794FEA03239AB248F28C33C1F6FF7300
S1135BC05B7913439AB27B681A8207F10807BD46D2
S1135BD080BD00BF80B584B000AFF860B9601346E3
S1135BE0FB7148F28003C1F6FF739A6CFB799BB298
S1135BF010464FF000011A46FDF7DEFA4FF001009F
S1135C00FFF7C0FE48F28003C1F6FF739A6CBB68CD
S1135C109BB21046F9681A464FF00103FDF7B4F839
S1135C204FF00100FFF7AEFE07F11007BD4680BD3F
S1135C3080B584B000AFF860B9607A603B603B7EA9
S1135C40F868B9681A46FFF7C5FF48F28003C1F641
S1135C50FF739A6C3B689BB2104679681A464FF002
S1135C600103FDF79FF94FF00100FFF78BFE07F1E9
S1135C701007BD4680BD00BF80B582B000AF0346AB
S1135C80FB71FB794FF06B004FF002014FF0030200
S1135C9000F054F807F10807BD4680BD80B582B016
S1135CA000AF0346FB71FB794FF01B004FF004017A
S1135CB04FF0020200F042F807F10807BD4680BD2C
S1135CC080B582B000AF0346FB71FB794FF01C0036
S1135CD04FF004014FF0020200F030F807F108071A
S1135CE0BD4680BD80B582B000AF0346FB71FB7931
S1135CF04FF06B004FF006011A4600F033F807F13D
S1135D000807BD4680BD00BF80B582B000AF034622
S1135D10FB714FF00A004FF004014FF0010200F054
S1135D2039F8FB794FF00A004FF000014FF00402FC
S1135D3000F048F807F10807BD4680BD90B585B06E
S1135D4002AFF871B9717A713B71F879B9797A79DE
S1135D503B794FF06804009400F048F807F10C0711
S1135D60BD4690BD80B582B000AF13460246FA71BD
S1135D700A46BA717B71F979BA797B79084611467A
S1135D801A464FF0680300F081F807F10807BD4692
S1135D9080BD00BF80B582B000AF13460246FA71E1
S1135DA00A46BA717B71F979BA797B79084611464A
S1135DB01A464FF00C0300F069F807F10807BD46D6
S1135DC080BD00BF90B585B002AFF871B9717A712A
S1135DD03B71F879B9797A793B794FF00C040094E6
S1135DE000F004F807F10C07BD4690BD80B586B0FD
S1135DF002AFF871B9717A713B717B794FF001028E
S1135E0002FA03F3DBB203F1FF33FB733A79FB7B52
S1135E101340BB7307F1070207F10D03397E0091AC
S1135E2010464FF001011A464FF00103FFF700FF3F
S1135E30FB7B6FEA0303DBB2DAB27B7BDBB213409A
S1135E40DBB2DBB27B73FA7948F26C33C1F6FF73D1
S1135E501A70BA7BBB7902FA03F3DAB27B7BDBB24A
S1135E601343DBB2DAB248F26C33C1F6FF735A70F3
S1135E703B7E48F26C30C1F6FF704FF002011A46C7
S1135E80FFF7A8FE07F11007BD4680BD80B586B0B8
S1135E9002AFF871B9717A713B7107F1070207F12A
S1135EA00F033979009110464FF001011A464FF063
S1135EB00103FFF7BDFEFA7948F26C33C1F6FF73B4
S1135EC01A707B79002B0BD0BB794FF0010202FAD8
S1135ED003F3DAB2FB7BDBB21343DBB2DAB20DE0DD
S1135EE0BB794FF0010202FA03F3DBB26FEA03035A
S1135EF0DAB2FB7BDBB21340DBB2DAB248F26C33CA
S1135F00C1F6FF735A703B7948F26C30C1F6FF70EA
S1135F104FF002011A46FFF75DFE07F11007BD4678
S1135F2080BD00BF90B595B002AFFDF73DFB4FF0CB
